S01E000041726475696E6F556E6F4672656572746F735F365F312E7372656393
S11300000C9434000C94E60B0C94130C0C945100D7
S11300100C9451000C9451000C9451000C94510018
S11300200C9451000C9451000C9451000C94010454
S11300300C9451000C9451000C9451000C945100F8
S11300400C949B030C9451000C9451000C9451009B
S11300500C9451000C9451000C9451000C945100D8
S11300600C9451000C94510011241FBECFEFD8E022
S1130070DEBFCDBF12E0A0E0B1E0EAECF1E202C0E5
S113008005900D92A830B107D9F728E0A8E0B2E0B6
S113009001C01D92A836B207E1F70E94E1010C9459
S11300A0E3100C9400000F931F93CF93DF93CDB70D
S11300B0DEB766970FB6F894DEBF0FBECDBF9F9331
S11300C08F937F936F9384E091E09F938F938E013E
S11300D00F5F1F4F1F930F930E94E60DC8010E94EC
S11300E0540C0FB6F894DEBF0FBECDBF66960FB6A4
S11300F0F894DEBF0FBECDBFDF91CF911F910F915A
S11301000895CF93DF9300D000D000D0CDB7DEB7F1
S1130110B12CC12CD12C760120E04FEF5FEFBE0152
S11301206F5F7F4F8091190290911A020E94DD0641
S1130130813091F789819A818F3F2FE7920751F09F
S1130140092E000CAA0BBB0BC80ED91EEA1EFB1EFF
S1130150B394E2CFB11005C088E091E00E94540C42
S1130160D7CF4B2C512C612C712CA4E6B0E0A70105
S113017096010E94820CB6946B0D711D811D911D18
S1130180A30192010E94630C2B833C834D835E8305
S1130190CA01B90124E630E040E050E00E94630C5B
S11301A04B015C0199233CF4882499245401861A58
S11301B0970AA80AB90A84E391E00E94540CC30187
S11301C0B2010E9453008DE391E00E94540CC701D8
S11301D0B6010E94530086E491E00E94540C6B81A6
S11301E07C818D819E8124E630E040E050E00E94D5
S11301F0630CCA01B9010E9453008EE20E944C0CA8
S11302008AE088169104A104B1041CF480E30E94DE
S11302104C0CC501B4010E9453008CE991E00E948A
S1130220540C76CFCF93DF9300D0CDB7DEB70F2E2B
S1130230F0ECEF2EF12CF02D0F2EF6ECCF2ED12C6E
S1130240F02D772473940F2EF8E0AF2EF2E0BF2E3A
S1130250F02D0F2E88248A94FFE79F2EF02D83E53E
S113026091E00E94540C8CE691E00E94540C6AE0E8
S113027070E080E090E00E94530088E791E00E94E3
S1130280540C8FE991E00E94540C10E0F701808136
S113029088230CF08AC0F6010081802F0E944C0C48
S11302A00D3041F00A3031F0802F90E00E94D40DDF
S11302B0892BE1F0E0911802EE2309F476C0F0E016
S11302C0E85FFD4F1082109218021A8219824AE0E8
S11302D050E0BE016F5F7F4FC5010E94BE0C2981B3
S11302E03A812850324009F065C05FC0E09118029D
S11302F0EF3008F05AC0E11109C00B3211F00D3291
S113030029F470921802F50100834FC0802F90E009
S1130310C0970A9708F049C081E08E0F80931802B5
S1130320F0E0E85FFD4F008340C01A30B8F09A82D5
S1130330898220E040E050E0BE016F5F7F4F8091F2
S1130340190290911A020E942E0681EC91E00E94FB
S1130350540C82E390E00E94600A81CF7A8369831F
S113036020E04FEF5FEFBE016F5F7F4F8091190276
S113037090911A020E942E061F5F86ED91E00E9462
S1130380540C612F70E080E090E00E9453008DEDEA
S113039091E00E94540C6AE070E080E090E00E94DA
S11303A053008FED91E00E94540C85E090E00E9490
S11303B0600A6CCF611571058105910509F0B5CF0F
S11303C0B6CF0E94400C40E062E08BE00E94000641
S11303D090931A0280931902892B29F485EE91E0F7
S11303E00E94540CFFCFA12CB12CC12CD12CE12C98
S11303F0F12C01E020E030E045EA50E06BEF71E0E1
S113040082E191E00E94DF0702E020E030E045EA6B
S113041050E06FEF71E081E890E00E94DF070E94F6
S1130420F008FFCFFC010396928381832FEF3FEF07
S113043034832383968385839087878310820895EA
S1130440FC01118610860895CF93DF939C01FB0174
S1130450DC011196CD91DC911297D383C2838C81F8
S11304609D81958384838C819D81DC0113967C938B
S11304706E9312977D836C8331872087F901808185
S11304808F5F8083DF91CF910895CF93DF93EB014A
S1130490488159814F3F2FEF520721F4FC01A78176
S11304A0B0850DC0DC01139601C0DF011296ED91F9
S11304B0FC9113972081318142175307B0F71296AC
S11304C0ED91FC911397FB83EA83D583C483BD83A9
S11304D0AC831396DC93CE93129799878887FC019B
S11304E020812F5F2083DF91CF910895CF93DF93F5
S11304F0FC01A085B185C281D381848195819D83CE
S11305008C83C481D581828193819B838A83119654
S11305108D919C911297E817F90731F484819581A4
S113052012969C938E931197118610868C9181500C
S11305308C93DF91CF91089531E1FC0130833197A1
S113054022E220833197A3E3A0833197608331971C
S1130550708331971082319760E8608331971082FD
S1130560319762E06083319763E06083319764E0A0
S11305706083319765E06083319766E060833197EB
S113058067E06083319768E06083319769E0608356
S1130590319760E1608331973083319732E1308362
S11305A0319733E13083319734E13083319735E14A
S11305B03083319736E13083319737E13083319797
S11305C038E13083319739E13083319730E2308339
S11305D0319731E2308331972083319723E22083AE
S11305E03197408331975083319726E220833197A6
S11305F027E22083319728E22083319729E2208360
S1130600319720E32083319721E32083869708954F
S1130610109289008CE7809388008BE0809381009E
S1130620EFE6F0E0808182608083A0916008B09161
S11306306108CD91CDBFDD91DEBFFF91EF91DF91D8
S1130640CF91BF91AF919F918F917F916F915F9166
S11306504F913F912F911F910F91FF90EF90DF9059
S1130660CF90BF90AF909F908F907F906F905F904E
S11306704F903F902F901F900F900FBE0F900895B2
S113068081E008950F920FB6F8940F921F921124EF
S11306902F923F924F925F926F927F928F929F928E
S11306A0AF92BF92CF92DF92EF92FF920F931F937C
S11306B02F933F934F935F936F937F938F939F9366
S11306C0AF93BF93CF93DF93EF93FF93A091600811
S11306D0B09161080DB60D920EB60D920E94BD0A3E
S11306E0A0916008B0916108CD91CDBFDD91DEBFCE
S11306F0FF91EF91DF91CF91BF91AF919F918F9136
S11307007F916F915F914F913F912F911F910F9125
S1130710FF90EF90DF90CF90BF90AF909F908F901D
S11307207F906F905F904F903F902F901F900F900D
S11307300FBE0F9008951F920F920FB60F921124BF
S11307400F900FBE0F901F9018950F920FB6F8944C
S11307500F921F9211242F923F924F925F926F92A9
S11307607F928F929F92AF92BF92CF92DF92EF923D
S1130770FF920F931F932F933F934F935F936F9326
S11307807F938F939F93AF93BF93CF93DF93EF9315
S1130790FF93A0916008B09161080DB60D920EB65A
S11307A00D920E94210981110E94BD0AA091600846
S11307B0B0916108CD91CDBFDD91DEBFFF91EF9186
S11307C0DF91CF91BF91AF919F918F917F916F9165
S11307D05F914F913F912F911F910F91FF90EF9057
S11307E0DF90CF90BF90AF909F908F907F906F904D
S11307F05F904F903F902F901F900F900FBE0F90DF
S113080008950E94A50318950F931F93CF93DF9328
S1130810EC010E941B0980911B0281111DC0E0E2C2
S1130820F2E085E292E09183808313821282ECE10C
S1130830F2E08BED95E09383828311821082A4E22F
S1130840B2E014969C938E9313971296FC93EE93B6
S1130850119781E080931B02209709F45FC09E01E9
S11308602C5F3F4F2396CA3DD54008F05AC0E09113
S11308702002F0912102A0E2B2E002C0DF01FC01FB
S1130880828193818217930720F48081918100975C
S1130890A9F7C2E0EC31FC0709F446C0CD91DC9124
S11308A011978E010C5F1F4F808191818D939C93D2
S11308B082819381821B930B8930910510F1BF01D2
S11308C0620F731FDB0113969C938E9312973383ED
S11308D0228312964D915C91139780E292E001C0BD
S11308E0CD01EC01A881B98112962D913C91139709
S11308F024173507A8F3EB01B983A883DC016D93B2
S11309007C93809100019091010122813381821BAB
S1130910930B909301018093000108C000E010E064
S113092005C000E010E002C000E010E00E94DE0913
S1130930C801DF91CF911F910F9108950F931F93D9
S1130940CF93DF93009741F1EC018C01045011091E
S11309500E941B09F80142815381A0E2B2E001C068
S1130960DF01ED91FC911197228133812417350722
S1130970B8F32497F983E8830D931C932091000125
S1130980309101018A819B81820F931F9093010111
S1130990809300010E94DE09DF91CF911F910F9196
S11309A008951F93CF93DF93EC01142F4C8D4423B0
S11309B0D9F1111116C050E08C819D810E94DD0D8A
S11309C02C8D8C819D81820F911D9D838C832A8126
S11309D03B818217930740F1888199819D838C83A1
S11309E023C050E08E819F810E94DD0D8C8D90E0AC
S11309F09195819591092E813F81280F391F3F835D
S1130A002E83488159812417350730F42A813B818C
S1130A10820F931F9F838E83123031F48A8D882333
S1130A2019F08A8D81508A8F8A8D8F5F8A8F80E03A
S1130A30DF91CF911F910895FF920F931F93CF934E
S1130A40DF9300D0CDB7DEB79A838983FC01078D8D
S1130A5010A1F801928D838D9817E8F4462FBE01FA
S1130A606F5F7F4FC8010E94D104F82EF801868D74
S1130A708F3F61F48189882379F0C80141960E94EF
S1130A80560B882349F0FF24F39406C0F801868DA1
S1130A908F5F868F01C0F12C8F2D0F900F90DF9107
S1130AA0CF911F910F91FF900895FC01448D442331
S1130AB0A9F050E026813781240F351F3783268320
S1130AC0828193812817390720F08081918197834F
S1130AD08683CB01668177810E94DD0D08950F9393
S1130AE01F93CF93DF93EC010FB6F8940F928E8D82
S1130AF01816FCF48E010F5E1F4F8F8D98A1892B61
S1130B0049F060E0CE010E941C05813061F40E942E
S1130B10E20B09C08989882361F0C8010E94560B41
S1130B2081110E94E20B8E8D81508E8F8E8D18164E
S1130B3024F38FEF8E8F0F900FBE0FB6F8940F92A1
S1130B408D8D1816BCF48885811105C013C0888565
S1130B50811104C00FC08E01085F1F4FC8010E949D
S1130B60560B81110E94E20B8D8D81508D8F8D8DDE
S1130B7018166CF38FEF8D8F0F900FBEDF91CF910E
S1130B801F910F910895CF93DF93EC010FB6F89462
S1130B900F92488159812C8D30E07B8D729FC0016A
S1130BA0739F900D1124FA01E80FF91FFB83EA8368
S1130BB01A8E5D834C83821B930B840F951F9F8336
S1130BC08E838FEF8D8F8E8F61110CC08885882363
S1130BD089F0CE0108960E94560B813059F40E9488
S1130BE0420308C0CE0108960E941202CE0141962B
S1130BF00E9412020F900FBE81E0DF91CF91089501
S1130C000F931F93CF93DF93082F162F6623C9F0FA
S1130C10869FC001112482960E940404EC0100976F
S1130C2021F416C0D983C88303C08196998388832D
S1130C300B8F1C8F61E0CE010E94C30518A21F8E8A
S1130C4007C081E290E00E940404EC01892B51F773
S1130C50CE01DF91CF911F910F9108959F92AF9292
S1130C60BF92CF92DF92EF92FF920F931F93CF9395
S1130C70DF9300D000D01F92CDB7DEB78C016B019B
S1130C805D834C83A22EB12C992493947C0188E03B
S1130C90E80EF11C0FB6F8940F92F801928D838D33
S1130CA0981718F0F2E0AF1227C04A2DB601C80118
S1130CB00E94D104F801278D30A1232B49F06A2D1D
S1130CC0C8010E941C05813099F40E94420310C09F
S1130CD0F8019189992349F0C80141960E94560B65
S1130CE0813031F40E94420303C081110E94420307
S1130CF00F900FBE81E050C08C819D81892B21F41F
S1130D000F900FBE80E048C0B11005C0CE0101961F
S1130D100E949E0BB92C0F900FBE0E941B090FB6A8
S1130D20F8940F92F801858D8F3F09F4158EF80120
S1130D30868D8F3F09F4168E0F900FBEBE016C5F37
S1130D407F4FCE0101960E94A90B81111FC00FB6DF
S1130D50F8940F92F801928D0F900FBE838D981323
S1130D600FC06C817D81C7010E942A0BC8010E94BB
S1130D706F050E94DE0981118DCF0E9442038ACF44
S1130D80C8010E946F050E94DE0984CFC8010E9439
S1130D906F050E94DE0980E00F900F900F900F9076
S1130DA00F90DF91CF911F910F91FF90EF90DF9003
S1130DB0CF90BF90AF909F9008959F92AF92BF92B3
S1130DC0CF92DF92EF92FF920F931F93CF93DF9313
S1130DD000D000D01F92CDB7DEB78C016B015D83CC
S1130DE04C83922EB12CAA24A3947C0181E1E80EB9
S1130DF0F11C0FB6F8940F92F801828D882349F103
S1130E00E680F780B601C8010E945505911010C014
S1130E10F801828D8150828F80858823B1F0C801CA
S1130E2008960E94560B813081F40E9442030DC043
S1130E30F801F782E6828189882339F0C801419656
S1130E400E94560B81110E9442030F900FBE81E055
S1130E504FC08C819D81892B21F40F900FBE80E0BF
S1130E6047C0B11005C0CE0101960E949E0BBA2C5A
S1130E700F900FBE0E941B090FB6F8940F92F80151
S1130E80858D8F3F09F4158EF801868D8F3F09F407
S1130E90168E0F900FBEBE016C5F7F4FCE01019680
S1130EA00E94A90B81111EC00FB6F8940F92F8018D
S1130EB0828D0F900FBE81110FC06C817D81C7019F
S1130EC00E942A0BC8010E946F050E94DE0981114D
S1130ED090CF0E9442038DCFC8010E946F050E94EB
S1130EE0DE0987CFC8010E946F050E94DE0980E0F9
S1130EF00F900F900F900F900F90DF91CF911F9153
S1130F000F91FF90EF90DF90CF90BF90AF909F90A4
S1130F100895E0912808F09129088081811107C083
S1130F208FEF9FEF90930301809302010895E09166
S1130F302808F09129080580F681E02D0680F781C4
S1130F40E02D82819381909303018093020108959F
S1130F50CF93DF93EC01E0916008F09161089383F3
S1130F6082838091070890910808C817D90768F40C
S1130F70609160087091610880912608909127081B
S1130F806E5F7F4F0E94450217C0609160087091A8
S1130F90610880912808909129086E5F7F4F0E9414
S1130FA045028091020190910301C817D90720F4EA
S1130FB0D0930301C0930201DF91CF9108954F9222
S1130FC05F926F927F928F929F92AF92BF92CF92D5
S1130FD0DF92EF92FF920F931F93CF93DF934C0115
S1130FE0EB015A012901C114D10439F4CA010E9448
S1130FF004046C01892B09F4E1C086E290E00E94AC
S113100004043C01009779F0FC01D08EC78AF1E01A
S1131010AF1AB108CA0CDB1C8881F301818F888167
S1131020811105C014C0C6010E949E04C7C0D3012B
S11310305A96FE0131969E01285F3F4FEF01819140
S11310408D938881882319F0E217F307B9F7F30128
S113105010A2102F043008F013E0F301168BE30103
S11310602296CE010E942002C3010C960E94200207
S1131070F3017186608684E090E0811B9109958775
S11310808487738A628A11A212A213A214A215A2DF
S1131090A201B401C6010E949C02F30191838083E2
S11310A0E114F10419F0F701718260820FB6F8942B
S11310B00F92809109088F5F8093090880916008DE
S11310C090916108892BD1F5709261086092600853
S11310D080910908813009F040C08CE398E00E94B7
S11310E0120285E498E00E9412028EE498E00E94C5
S11310F0120287E598E00E94120283E398E00E94BE
S113110012028AE298E00E9412028DE198E00E94A5
S1131110120284E198E00E9412028AE098E00E94A0
S1131120120283E398E090932908809328088AE2C6
S113113098E090932708809326080FC080910508B3
S113114081110BC0E0916008F0916108868908174D
S113115020F07092610860926008809101088F5FAE
S113116080930108F301868990910608981710F47A
S11311708093060890E09C01220F331F220F331F37
S1131180220F331F820F931FBE01845C974F0E946E
S113119024020F900FBE80910508882359F0E09136
S11311A06008F09161088689801730F40E94420338
S11311B081E005C081E003C081E001C08FEFDF91D1
S11311C0CF911F910F91FF90EF90DF90CF90BF9040
S11311D0AF909F908F907F906F905F904F90089505
S11311E0AF92BF92CF92DF92EF92FF920F93A12C16
S11311F0B12CC12CD12CE12CF12C00E020E030E00A
S113120045E550E063E072E080E89AE00E94DF0781
S1131210813049F4F89480930508109208081092DC
S113122007080E9408030F91FF90EF90DF90CF9082
S1131230BF90AF900895809100088F5F809300085D
S11312400895CF92DF92EF92FF920F931F93CF9363
S1131250DF938091000881119BC0809107089091D1
S1131260080801969093080880930708E0900708FF
S1131270F0900808E114F104B9F4809128089091E1
S113128029082091260830912708309329082093B3
S113129028089093270880932608809102088F5F7E
S11312A0809302080E9489078091020190910301B2
S11312B0E816F90610F4D12C53C0D12CCC24C394D5
S11312C0E0912808F09129088081811107C08FEFEF
S11312D09FEF909303018093020142C0E09128089C
S11312E0F09129080580F681E02DC681D7818A8195
S11312F09B81E816F90628F4909303018093020178
S11313002FC08E010E5F1F4FC8010E9476028C8988
S11313109D89892B21F0CE010C960E9476028E893C
S113132090910608981710F48093060890E09C01A9
S1131330220F331F220F331F220F331F820F931FDD
S1131340B801845C974F0E942402E0916008F091F8
S113135061089E898689981708F4B2CFDC2CB0CF37
S1131360E0916008F0916108868990E0FC01EE0F3D
S1131370FF1FEE0FFF1FEE0FFF1F8E0F9F1FFC01BD
S1131380E45CF74F8081823048F0DD24D39406C0BA
S1131390809104088F5F80930408D12C8091030806
S11313A0882311F0DD24D3948D2DDF91CF911F91EB
S11313B00F91FF90EF90DF90CF900895DF92EF921E
S11313C0FF920F931F93CF93DF930FB6F8940F926E
S11313D08091000881508093000880910008811159
S11313E062C080910908811133C060C0D70115968D
S11313F0ED91FC911697C681D781CE010C960E947F
S113140076028E010E5F1F4FC8010E9476028E89FC
S113141090910608981710F48093060890E09C01B8
S1131420220F331F220F331F220F331F820F931FEC
S1131430B801845C974F0E942402E0916008F09107
S113144061089E898689981758F0D092030808C0CD
S11314500F2EFDE1EF2EF8E0FF2EF02DDD24D394C6
S1131460F70180818111C2CF80910408882399F00B
S113147080910408882379F0C1E00E942109811138
S1131480C0930308809104088150809304088091DC
S113149004088111F2CF80910308813031F40E9455
S11314A0420381E003C080E001C080E00F900FBEE2
S11314B0DF91CF911F910F91FF90EF90DF900895EE
S11314C0CF93DF93EC01892BB1F00E941B0980912B
S11314D0070890910808C80FD91F8091600890915F
S11314E0610802960E947602CE010E94A8070E941B
S11314F0DE09811102C00E944203DF91CF91089559
S113150004E118E00F2EFCE3EF2EF8E0FF2EF02D9F
S113151029C00E941B09D801CC910E94DE09CC236A
S113152009F10FB6F8940F92D8011596ED91FC913C
S11315301697C681D781CE0102960E9476028091C9
S11315400908815080930908809113088150809381
S113155013080F900FBE8F89988D0E949E04CE01B0
S11315600E949E04809113088111D3CFF7018081DA
S11315708230C0F30E944203F5CF80910008882393
S113158021F081E08093030808951092030880916C
S1131590060890E0FC01EE0FFF1FEE0FFF1FEE0F99
S11315A0FF1F8E0F9F1FFC01E45CF74F80818111A8
S11315B017C0809106088150809306088091060820
S11315C090E0FC01EE0FFF1FEE0FFF1FEE0FFF1F59
S11315D08E0F9F1FFC01E45CF74F8081882349F341
S11315E08091060890E09C01220F331F220F331FC5
S11315F0220F331F280F391FD901A45CB74F11964E
S1131600ED91FC9112970280F381E02D1296FC93E8
S1131610EE931197215C374FE217F30729F42281E7
S11316203381FD0132832183FC01EE0FFF1FEE0F96
S1131630FF1FEE0FFF1F8E0F9F1FFC01E45CF74F8F
S11316400180F281E02D86819781909361088093D7
S113165060080895CF93DF93EB0160916008709167
S11316606108645F7F4F0E944502809160089091F9
S1131670610802960E947602CF3F8FEFD80759F493
S113168060916008709161086E5F7F4F8AE098E016
S11316900E94240208C080910708909108088C0FCA
S11316A09D1F0E94A807DF91CF9108950F931F9368
S11316B0CF93DF93DC011596ED91FC911697C681CB
S11316C0D7818E01045F1F4FC8010E94760280916A
S11316D0000881111CC00A501109C8010E94760239
S11316E08E8990910608981710F48093060890E06C
S11316F09C01220F331F220F331F220F331F820F2F
S1131700931FB801845C974F0E94240205C0B8015E
S11317108DE198E00E942402E0916008F091610854
S11317209E898689891720F481E08093030801C08B
S113173080E0DF91CF911F910F91089520910208CD
S1131740FC0120832091070830910808328321830B
S113175008950FB6F8940F92409107085091080825
S1131760DB012D913C912F3FBFEF3B0719F1E09135
S11317700208DC01FC91FE1739F01196ED91FC9101
S113178012974E175F07C0F4DC011196ED91FC919E
S11317901297DA01AE1BBF0BA217B30778F4DB0173
S11317A0E41BF50B2E0F3F1F2D933C930E949E0BC1
S11317B080E005C080E003C081E001C081E00F90BB
S11317C00FBE089581E08093030808951F920F923D
S11317D00FB60F9211242F933F934F935F936F9300
S11317E07F938F939F93AF93BF93EF93FF938091D6
S11317F0620890916308892B29F0E0916208F091C6
S113180063080995FF91EF91BF91AF919F918F91DB
S11318107F916F915F914F913F912F910F900FBEE8
S11318200F901F9018951F920F920FB60F921124CC
S11318302F933F934F935F936F937F938F939F93D4
S1131840AF93BF93EF93FF938091640890916508E1
S1131850892B29F0E0916408F09165080995FF91BE
S1131860EF91BF91AF919F918F917F916F915F9114
S11318704F913F912F910F900FBE0F901F9018958D
S11318801092C50087E68093C4008CE18093C10068
S113189086E08093C2000895E0ECF0E0908195FF2B
S11318A0FDCF8093C6000895CF93DF93EC01888128
S11318B0882331F021960E944C0C89918111FBCF31
S11318C0DF91CF910895052E97FB1EF400940E949A
S11318D07A0C57FD07D00E948D0C07FC03D04EF400
S11318E00C947A0C50954095309521953F4F4F4F6D
S11318F05F4F089590958095709561957F4F8F4FB8
S11319009F4F08950E94AF0CA59F900DB49F900D1A
S1131910A49F800D911D11240895A1E21A2EAA1BE3
S1131920BB1BFD010DC0AA1FBB1FEE1FFF1FA2178B
S1131930B307E407F50720F0A21BB30BE40BF50B88
S1131940661F771F881F991F1A9469F76095709511
S1131950809590959B01AC01BD01CF010895A29F94
S1131960B001B39FC001A39F700D811D1124911D6F
S1131970B29F700D811D1124911D0895A0E0B0E067
S1131980E4ECFCE00C94AD105C016B017A01611590
S1131990710519F0FB0191838083E114F10429F0AE
S11319A0C7010297839708F0E5C0E5012196F50188
S11319B01081812F90E00E94D40D892B11F05E01DB
S11319C0F4CF1D3229F42196F501118101E007C0FD
S11319D01B3221F4E5012296F501118100E0E114A6
S11319E0F10409F1F0E1EF16F10429F43FC010E32A
S11319F0E114F10421F128E0E216F10401F154F4B8
S1131A00E2E0EE16F10421F5812C912CA12CB0E436
S1131A10BB2E3EC0FAE0EF16F10439F020E1E216E5
S1131A20F104B1F430C0103319F1FAE0EF2EF12CC7
S1131A30ACEC8A2E982CA82CACE0BA2E29C078E005
S1131A40E72EF12C812C912CA12CE0E1BE2E20C09C
S1131A5060E070E080E090E897010F2C000C440BEC
S1131A60550B0E948D0C49015A0112C0103359F4D0
S1131A7088818F7D883509F0BACF1981229602605A
S1131A8080E1E82EF12C812C912CA12C68E0B62E5B
S1131A9040E060E070E0CB0127010F2C000C6608E9
S1131AA07708FE0150ED352E310E29E0231570F430
S1131AB02FEB210F2A3118F439EC332E06C02FE90D
S1131AC0210F2A3118F529EA322E310E232D30E068
S1131AD02E153F05DCF447FD16C086169706A806AA
S1131AE0B90670F0A30192010E949C10630D711D50
S1131AF0811D911D61307105810520E8920710F068
S1131B004FEF01C041E021961081CBCF202F2170EF
S1131B10C114D10471F0442329F02197F601D18333
S1131B20C08307C001FF19C02297F601D183C08387
S1131B3014C047FF12C0222329F060E070E080E067
S1131B4090E804C06FEF7FEF8FEF9FE722E230E071
S1131B50309367082093660809C0222381F090958A
S1131B608095709561957F4F8F4F9F4F462F372FEC
S1131B70282F12C040E030E020E090E00DC097FF35
S1131B80F5CF82E290E090936708809366086FEF48
S1131B907FEF8FEF9FE7EACF642F732F822FCDB7AC
S1131BA0DEB7E1E10C94C91091110C94E90F803275
S1131BB019F089508550C8F70895FB01DC0102C073
S1131BC001900D9241505040D8F70895AEE0B0E036
S1131BD0ECEEFDE00C94BA100D891E8986E08C832E
S1131BE01A8309838FEF9FE79E838D83AE01475E3F
S1131BF05F4F6F89788DCE0101960E94080EEF81A8
S1131C00F885E00FF11F10822E96E4E00C94D610B4
S1131C10ABE0B0E0EEE0FEE00C94AC106C017B01B4
S1131C208A01FC0117821682838181FFCCC1CE0117
S1131C3001963C01F6019381F70193FD859193FF91
S1131C4081917F01882309F4BAC1853239F493FD67
S1131C50859193FF81917F01853229F4B60190E04B
S1131C600E940210E7CF912C212C312CFFE1F315B7
S1131C70D8F08B3279F038F4803279F08332A1F4E1
S1131C80232D20611DC08D3261F0803369F4232D32
S1131C90216016C0832D8260382EE32DE4603E2E31
S1131CA02AC0F32DF8601DC037FC2DC020ED280F8D
S1131CB02A3040F08E32B9F436FC81C1232D2064E1
S1131CC0322E19C036FE06C08AE0989E200D1124DB
S1131CD0922E11C0EAE02E9E200D1124222EF32D07
S1131CE0F0623F2E08C08C3621F4832D8068382E94
S1131CF002C0883641F4F70193FD859193FF8191E9
S1131D007F018111B3CF982F9F7D9554933028F490
S1131D100C5F1F4F9FE399830DC0833631F08337E7
S1131D2071F0833509F059C021C0F801808189839D
S1131D300E5F1F4F88248394912C530113C02801F4
S1131D40F2E04F0E511CF801A080B18036FE03C0B2
S1131D50692D70E002C06FEF7FEFC5010E94F70F9D
S1131D604C018201F32DFF773F2E16C0280122E09B
S1131D70420E511CF801A080B18036FE03C0692DCB
S1131D8070E002C06FEF7FEFC5010E94EC0F4C01C1
S1131D90F32DF0683F2E820133FC1BC0822D90E0AE
S1131DA088169906B0F4B60180E290E00E94021011
S1131DB02A94F4CFF50137FC859137FE81915F01B8
S1131DC0B60190E00E94021021102A9421E0821AA8
S1131DD091088114910471F7E8C0843611F08936B2
S1131DE041F5F80137FE07C06081718182819381DA
S1131DF00C5F1F4F08C060817181072E000C880B97
S1131E00990B0E5F1F4FF32DFF763F2E97FF09C0EE
S1131E1090958095709561957F4F8F4F9F4FF06897
S1131E203F2E2AE030E0A3010E943E10882E86183F
S1131E3045C0853731F4232D2F7EB22E2AE030E0C1
S1131E4025C0932D997FB92E8F36C1F018F48835AB
S1131E5079F0B5C0803719F0883721F0B0C0E92F88
S1131E60E061BE2EB4FE0DC0FB2DF460BF2E09C090
S1131E7034FE0AC0292F2660B22E06C028E030E0C6
S1131E8005C020E130E002C020E132E0F801B7FEF5
S1131E9007C060817181828193810C5F1F4F06C0EE
S1131EA06081718180E090E00E5F1F4FA3010E946A
S1131EB03E10882E8618FB2DFF773F2E36FE0DC070
S1131EC0232D2E7FA22E891458F434FE0BC032FC2D
S1131ED009C0832D8E7EA82E05C0B82CA32C03C068
S1131EE0B82C01C0B92CA4FE0FC0FE01E80DF11DF1
S1131EF08081803321F49A2D997EA92E09C0A2FEF7
S1131F0006C0B394B39404C08A2D867809F0B394C0
S1131F10A3FC11C0A0FE06C0B21488F4280C922CB5
S1131F209B180EC0B21460F4B60180E290E00E94E7
S1131F300210B394F7CFB21418F42B1802C0982CE3
S1131F40212CA4FE10C0B60180E390E00E94021090
S1131F50A2FE17C0A1FC03C088E790E002C088E598
S1131F6090E0B6010CC08A2D867859F0A1FE02C01B
S1131F708BE201C080E2A7FC8DE2B60190E00E94F2
S1131F800210891438F4B60180E390E00E94021034
S1131F909A94F7CF8A94F301E80DF11D8081B6017C
S1131FA090E00E9402108110F5CF222009F442CE65
S1131FB0B60180E290E00E9402102A94F6CFF60166
S1131FC08681978102C08FEF9FEF2B96E2E10C94FC
S1131FD0C810992788270895FC0105906150704026
S1131FE00110D8F7809590958E0F9F1F0895FC01DE
S1131FF06150704001900110D8F7809590958E0F34
S11320009F1F08950F931F93CF93DF93FB012381A9
S113201021FD03C08FEF9FEF2CC022FF16C0468125
S11320205781248135814217530744F4A081B1813B
S11320309D012F5F3F4F318320838C93268137810D
S11320402F5F3F4F3783268314C08B01EC01FB01C4
S11320500084F185E02D0995892BE1F6D8011696C7
S11320608D919C911797019617969C938E93169732
S1132070CE01DF91CF911F910F910895FA01AA2704
S1132080283051F1203181F1E8946F936E7F6E5FB7
S11320907F4F8F4F9F4FAF4FB1E03ED0B4E03CD065
S11320A0670F781F891F9A1FA11D680F791F8A1F48
S11320B0911DA11D6A0F711D811D911DA11D20D0AF
S11320C009F468943F912AE0269F11243019305D69
S11320D03193DEF6CF010895462F4770405D41935A
S11320E0B3E00FD0C9F7F6CF462F4F70405D4A33A7
S11320F018F0495D31FD4052419302D0A9F7EACF6F
S1132100B4E0A6959795879577956795BA95C9F79D
S113211000976105710508959B01AC010A2E069490
S11321205795479537952795BA95C9F7620F731F49
S1132130841F951FA01D0895DB018F939F930E9418
S1132140820CBF91AF91A29F800D911DA39F900D12
S1132150B29F900D112408952F923F924F925F9257
S11321606F927F928F929F92AF92BF92CF92DF92A3
S1132170EF92FF920F931F93CF93DF93CDB7DEB708
S1132180CA1BDB0B0FB6F894DEBF0FBECDBF09949C
S11321902A88398848885F846E847D848C849B84F3
S11321A0AA84B984C884DF80EE80FD800C811B8101
S11321B0AA81B981CE0FD11D0FB6F894DEBF0FBE30
S10D21C0CDBFED010895F894FFCFA0
S11321CADB05FFFF256C64004E6F206E756D62653A
S11321DA727320656E74657265642E204176657229
S11321EA61676520697320756E646566696E6564E6
S11321FA2E0D0A00436F756E74203D20002C205367
S113220A756D203D20002C2041766572616765203A
S113221A3D20000D0A3D3D3D2041737369676E6D93
S113222A656E742032203D3D3D0D0A005479706577
S113223A20757020746F200020696E74656765725A
S113224A73202873706163652F6E65776C696E6598
S113225A20736570617261746564292E0D0A0054D5
S113226A797065203020617420616E792074696DFB
S113227A6520746F2066696E6973682E0D0A3E20A4
S113228A000D0A5B496E7075742066696E6973681D
S113229A65645D0D0A000D0A4F4B2028002F0029A2
S11322AA0D0A3E2000517565756520637265617477
S11322BA65206661696C65640D0A00534E440052D8
S10B22CA43560049444C450051
S9030000FC
