S01A000041726475696E6F556E6F4672656572746F732E73726563BC
S11300000C943E000C945B000C945B000C945B001D
S11300100C945B000C945B000C945B000C945B00F0
S11300200C945B000C945B000C945B000C94F20247
S11300300C945B000C945B000C945B000C945B00D0
S11300400C948C020C945B000C945B000C945B008D
S11300500C945B000C945B000C945B000C945B00B0
S11300600C945B000C945B008C0D8C0D8C0DC70DF7
S1130070B50DC40D8C0D8C0DC70DB50D11241FBE0F
S1130080CFEFD8E0DEBFCDBF11E0A0E0B1E0E8E300
S1130090FCE102C005900D92A037B107D9F727E023
S11300A0A0E7B1E001C01D92AB3FB207E1F70E94A7
S11300B0BC000C941A0E0C9400009BB180E28927BA
S11300C08BB908950F931F93CF9384E091E00E941E
S11300D0F40D0E94030EC82F84E291E00E94F40DF7
S11300E08C2F0E94EC0DC43671F404E610E020E07D
S11300F030E048EC50E064E08091D1079091D20761
S11301000E94430CE2CFC93671F404E610E020E00B
S113011030E042E350E064E08091D1079091D2074F
S11301200E94430CD2CFC23779F40E94A90804E696
S113013010E020E030E0AC0162E08091D1079091C2
S1130140D2070E94430CC1CFC33771F404E610E018
S113015020E030E040E050E063E08091D1079091EE
S1130160D2070E94430CB1CF82E391E00E94F40DC8
S1130170CF911F910F910895AF92BF92CF92DF92CA
S1130180EF92FF920F931F930E94E00D8FEF8AB9B5
S11301900DE510E020E030E041E064E670E081E548
S11301A091E00E940B0C9093D2078093D1070E9498
S11301B0A90804E610E020E030E0AC0161E08091A1
S11301C0D1079091D2070E94430CA12CB12CC12CD1
S11301D0D12CE12CF12C01E020E030E040E051E0B2
S11301E068E571E082E690E00E9463070E9474086B
S11301F080E090E01F910F91FF90EF90DF90CF90FF
S1130200BF90AF900895FC010396928381832FEFF2
S11302103FEF34832383968385839087878310827B
S11302200895FC01118610860895CF93DF939C01F5
S1130230FB01DC011196CD91DC911297D383C2832B
S11302408C819D81958384838C819D81DC011396AF
S11302507C936E9312977D836C8331872087F90199
S113026080818F5F8083DF91CF910895CF93DF9357
S1130270EB01488159814F3F2FEF520721F4FC01D4
S1130280A781B0850DC0DC01139601C0DF01129671
S1130290ED91FC9113972081318142175307B0F7F8
S11302A01296ED91FC911397FB83EA83D583C48363
S11302B0BD83AC831396DC93CE931297998788877A
S11302C0FC0120812F5F2083DF91CF910895CF938C
S11302D0DF93FC01A085B185C281D381848195819E
S11302E09D838C83C481D581828193819B838A83FE
S11302F011968D919C911297E817F90731F4848136
S1130300958112969C938E931197118610868C91E9
S113031081508C93DF91CF91089531E1FC013083BA
S1130320319722E220833197A3E3A083319760833E
S11303303197708331971082319760E860833197E9
S11303401082319762E06083319763E06083319774
S113035064E06083319765E06083319766E0608391
S1130360319767E06083319768E06083319769E093
S11303706083319760E1608331973083319732E154
S11303803083319733E13083319734E130833197CF
S113039035E13083319736E13083319737E130836B
S11303A0319738E13083319739E13083319730E246
S11303B03083319731E2308331972083319723E2C0
S11303C020833197408331975083319726E22083ED
S11303D0319727E22083319728E22083319729E25D
S11303E02083319720E32083319721E3208386976C
S11303F00895109289008CE7809388008BE08093A5
S11304008100EFE6F0E0808182608083A091B507EF
S1130410B091B607CD91CDBFDD91DEBFFF91EF91D5
S1130420DF91CF91BF91AF919F918F917F916F9108
S11304305F914F913F912F911F910F91FF90EF90FA
S1130440DF90CF90BF90AF909F908F907F906F90F0
S11304505F904F903F902F901F900F900FBE0F9082
S1130460089581E008950F920FB6F8940F921F92A9
S113047011242F923F924F925F926F927F928F92AC
S11304809F92AF92BF92CF92DF92EF92FF920F931F
S11304901F932F933F934F935F936F937F938F9308
S11304A09F93AF93BF93CF93DF93EF93FF93A09169
S11304B0B507B091B6070DB60D920EB60D920E9417
S11304C02F0AA091B507B091B607CD91CDBFDD91AC
S11304D0DEBFFF91EF91DF91CF91BF91AF919F91DB
S11304E08F917F916F915F914F913F912F911F91C8
S11304F00F91FF90EF90DF90CF90BF90AF909F90BF
S11305008F907F906F905F904F903F902F901F90AF
S11305100F900FBE0F9008951F920F920FB60F9277
S113052011240F900FBE0F901F9018950F920FB6C5
S1130530F8940F921F9211242F923F924F925F9240
S11305406F927F928F929F92AF92BF92CF92DF92DF
S1130550EF92FF920F931F932F933F934F935F93C9
S11305606F937F938F939F93AF93BF93CF93DF93B7
S1130570EF93FF93A091B507B091B6070DB60D9216
S11305800EB60D920E94B30881110E942F0AA09109
S1130590B507B091B607CD91CDBFDD91DEBFFF9118
S11305A0EF91DF91CF91BF91AF919F918F917F9107
S11305B06F915F914F913F912F911F910F91FF90F8
S11305C0EF90DF90CF90BF90AF909F908F907F90EF
S11305D06F905F904F903F902F901F900F900FBEA1
S11305E00F9008950E94960218950F931F93CF932E
S11305F0DF93EC010E94A3088091700181111DC05A
S1130600E5E7F1E08AE791E0918380831382128227
S1130610E1E7F1E08BED95E0938382831182108210
S1130620A9E7B1E014969C938E9313971296FC93CA
S1130630EE93119781E080937001209709F45FC0D5
S11306409E012C5F3F4F2396CA3DD54008F05AC007
S1130650E0917501F0917601A5E7B1E002C0DF01F8
S1130660FC01828193818217930720F48081918118
S11306700097A9F7C1E0E137FC0709F446C0CD9122
S1130680DC9111978E010C5F1F4F808191818D93B6
S11306909C9382819381821B930B8930910510F185
S11306A0BF01620F731FDB0113969C938E93129705
S11306B03383228312964D915C91139785E791E0E1
S11306C001C0CD01EC01A881B98112962D913C9114
S11306D0139724173507A8F3EB01B983A883DC012A
S11306E06D937C938091000190910101228133816B
S11306F0821B930B909301018093000108C000E0DA
S113070010E005C000E010E002C000E010E00E942C
S11307107009C801DF91CF911F910F9108950F9334
S11307201F93CF93DF93009741F1EC018C010450A8
S113073011090E94A308F80142815381A5E7B1E0A1
S113074001C0DF01ED91FC911197228133812417BF
S11307503507B8F32497F983E8830D931C9320910C
S11307600001309101018A819B81820F931F909334
S11307700101809300010E947009DF91CF911F91C4
S11307800F9108951F93CF93DF93EC01142F4C8D99
S11307904423D9F1111116C050E08C819D810E942F
S11307A0110E2C8D8C819D81820F911D9D838C83D4
S11307B02A813B818217930740F1888199819D8327
S11307C08C8323C050E08E819F810E94110E8C8DFA
S11307D090E09195819591092E813F81280F391FD1
S11307E03F832E83488159812417350730F42A81A9
S11307F03B81820F931F9F838E83123031F48A8D45
S1130800882319F08A8D81508A8F8A8D8F5F8A8F11
S113081080E0DF91CF911F910895FF920F931F9372
S1130820CF93DF9300D0CDB7DEB79A838983FC01E1
S1130830078D10A1F801928D838D9817E8F4462F47
S1130840BE016F5F7F4FC8010E94C203F82EF801FA
S1130850868D8F3F61F48189882379F0C8014196A0
S11308600E94E50A882349F0FF24F39406C0F801A6
S1130870868D8F5F868F01C0F12C8F2D0F900F9086
S1130880DF91CF911F910F91FF900895FC01448D4A
S11308904423A9F050E026813781240F351F378384
S11308A02683828193812817390720F080819181E2
S11308B097838683CB01668177810E94110E089508
S11308C00F931F93CF93DF93EC010FB6F8940F921D
S11308D08E8D1816FCF48E010F5E1F4F8F8D98A11C
S11308E0892B49F060E0CE010E940D04813061F44F
S11308F00E94710B09C08989882361F0C8010E9494
S1130900E50A81110E94710B8E8D81508E8F8E8D20
S1130910181624F38FEF8E8F0F900FBE0FB6F89436
S11309200F928D8D1816BCF48885811105C013C0F3
S11309308885811104C00FC08E01085F1F4FC80154
S11309400E94E50A81110E94710B8D8D81508D8F5B
S11309508D8D18166CF38FEF8D8F0F900FBEDF9176
S1130960CF911F910F910895CF93DF93EC010FB6B0
S1130970F8940F92488159812C8D30E07B8D729FC1
S1130980C001739F900D1124FA01E80FF91FFB8336
S1130990EA831A8E5D834C83821B930B840F951F0D
S11309A09F838E838FEF8D8F8E8F61110CC088850E
S11309B0882389F0CE0108960E94E50A813059F413
S11309C00E94330208C0CE0108960E940301CE01A2
S11309D041960E9403010F900FBE81E0DF91CF91F9
S11309E008950F931F93CF93DF93082F162F662339
S11309F0C9F0869FC001112482960E94F502EC0181
S1130A00009721F416C0D983C88303C081969983C3
S1130A1088830B8F1C8F61E0CE010E94B40418A25E
S1130A201F8E07C081E290E00E94F502EC01892B41
S1130A3051F7CE01DF91CF911F910F9108959F92AD
S1130A40AF92BF92CF92DF92EF92FF920F931F93D8
S1130A50CF93DF9300D000D01F92CDB7DEB78C01C7
S1130A606B015D834C83A22EB12C992493947C0159
S1130A7088E0E80EF11C0FB6F8940F92F801928DFD
S1130A80838D981718F0F2E0AF1227C04A2DB601F3
S1130A90C8010E94C203F801278D30A1232B49F01D
S1130AA06A2DC8010E940D04813099F40E9433021A
S1130AB010C0F8019189992349F0C80141960E9418
S1130AC0E50A813031F40E94330203C081110E948F
S1130AD033020F900FBE81E050C08C819D81892B21
S1130AE021F40F900FBE80E048C0B11005C0CE01C4
S1130AF001960E942D0BB92C0F900FBE0E94A308E3
S1130B000FB6F8940F92F801858D8F3F09F4158E76
S1130B10F801868D8F3F09F4168E0F900FBEBE012B
S1130B206C5F7F4FCE0101960E94380B81111FC06C
S1130B300FB6F8940F92F801928D0F900FBE838D2B
S1130B4098130FC06C817D81C7010E949C0AC80163
S1130B500E9460040E94700981118DCF0E943302AB
S1130B608ACFC8010E9460040E94700984CFC80122
S1130B700E9460040E94700980E00F900F900F9013
S1130B800F900F90DF91CF911F910F91FF90EF90F5
S1130B90DF90CF90BF90AF909F900895EF92FF9217
S1130BA01F93CF93DF93FA01DC015A965C915A9715
S1130BB05B963C91531710F0223071F5122F7F0190
S1130BC0EC01422F0E94C2038E8D8F3F01F58F8D61
S1130BD098A1892B61F0612FCE010E940D04813010
S1130BE0E9F4E114F104E1F0F701808320C089897C
S1130BF08823C1F0CE0141960E94E50A8823A1F022
S1130C00E114F10499F081E0D7018C9310C08E8D2A
S1130C108F5F8E8F81E00BC080E009C081E007C048
S1130C2081E005C081E003C081E001C081E0DF9183
S1130C30CF911F91FF90EF9008959F92AF92BF9232
S1130C40CF92DF92EF92FF920F931F93CF93DF9394
S1130C5000D000D01F92CDB7DEB78C016B015D834D
S1130C604C83922EB12CAA24A3947C0181E1E80E3A
S1130C70F11C0FB6F8940F92F801828D882349F184
S1130C80E680F780B601C8010E944604911010C0A6
S1130C90F801828D8150828F80858823B1F0C8014C
S1130CA008960E94E50A813081F40E9433020DC047
S1130CB0F801F782E6828189882339F0C8014196D8
S1130CC00E94E50A81110E9433020F900FBE81E059
S1130CD04FC08C819D81892B21F40F900FBE80E041
S1130CE047C0B11005C0CE0101960E942D0BBA2C4D
S1130CF00F900FBE0E94A3080FB6F8940F92F8014C
S1130D00858D8F3F09F4158EF801868D8F3F09F488
S1130D10168E0F900FBEBE016C5F7F4FCE01019601
S1130D200E94380B81111EC00FB6F8940F92F8017F
S1130D30828D0F900FBE81110FC06C817D81C70120
S1130D400E949C0AC8010E9460040E9470098111DB
S1130D5090CF0E9433028DCFC8010E9460040E948C
S1130D60700987CFC8010E9460040E94700980E066
S1130D700F900F900F900F900F90DF91CF911F91D4
S1130D800F91FF90EF90DF90CF90BF90AF909F9026
S1130D9008952091D3073091D407232B51F0E7ED28
S1130DA0F7E021E030E0D90140815181452B89F4FD
S1130DB002C0A0E0B0E0AA0FBB1FAA0FBB1FAD5238
S1130DC0B84F11967C936E9313969C938E931297BF
S1130DD008952F5F3F4F34962A30310521F7089547
S1130DE0CF93DF93EC010FB6F8940F928D8D8F3F64
S1130DF009F41D8E8E8D8F3F09F41E8E0F900FBE49
S1130E008A8D811104C0CE0141960E94C80ACE0188
S1130E100E946004DF91CF910895E0917D07F091E5
S1130E207E078081811107C08FEF9FEF90930301AC
S1130E30809302010895E0917D07F0917E0705807B
S1130E40F681E02D0680F781E02D828193819093D5
S1130E500301809302010895CF93DF93EC01E091A5
S1130E60B507F091B6079383828380915C079091D4
S1130E705D07C817D90768F46091B5077091B60784
S1130E8080917B0790917C076E5F7F4F0E943601B3
S1130E9017C06091B5077091B60780917D07909156
S1130EA07E076E5F7F4F0E94360180910201909110
S1130EB00301C817D90720F4D0930301C09302019A
S1130EC0DF91CF9108954F925F926F927F928F92AC
S1130ED09F92AF92BF92CF92DF92EF92FF920F93C5
S1130EE01F93CF93DF934C01EB015A012901C114E5
S1130EF0D10439F4CA010E94F5026C01892B09F46A
S1130F00E1C086E290E00E94F5023C01009779F08E
S1130F10FC01D08EC78AF1E0AF1AB108CA0CDB1C01
S1130F208881F301818F8881811105C014C0C601B5
S1130F300E948F03C7C0D3015A96FE0131969E01C9
S1130F40285F3F4FEF0181918D938881882319F0A9
S1130F50E217F307B9F7F30110A2102F043008F0D9
S1130F6013E0F301168BE3012296CE010E941101D6
S1130F70C3010C960E941101F3017186608684E01E
S1130F8090E0811B910995878487738A628A11A2F4
S1130F9012A213A214A215A2A201B401C6010E94B6
S1130FA08D01F30191838083E114F10419F0F701B9
S1130FB0718260820FB6F8940F9280915E078F5F02
S1130FC080935E078091B5079091B607892BD1F580
S1130FD07092B6076092B50780915E07813009F080
S1130FE040C081E997E00E9403018AE997E00E94EA
S1130FF0030183EA97E00E9403018CEA97E00E94D0
S1131000030188E897E00E9403018FE797E00E94BC
S1131010030182E797E00E94030189E697E00E94BA
S113102003018FE597E00E94030188E897E090931D
S11310307E0780937D078FE797E090937C078093EA
S11310407B070FC080915A0781110BC0E091B5074F
S1131050F091B6078689081720F07092B60760925F
S1131060B507809156078F5F80935607F3018689F1
S113107090915B07981710F480935B0790E09C01B4
S1131080220F331F220F331F220F331F820F931F90
S1131090BE018F56984F0E9415010F900FBE80918C
S11310A05A07882359F0E091B507F091B60786896D
S11310B0801730F40E94330281E005C081E003C050
S11310C081E001C08FEFDF91CF911F910F91FF90CD
S11310D0EF90DF90CF90BF90AF909F908F907F90D4
S11310E06F905F904F900895AF92BF92CF92DF922E
S11310F0EF92FF920F93A12CB12CC12CD12CE12C97
S1131100F12C00E020E030E045E550E06EE571E0D0
S113111082EF99E00E946307813069F40E94E10B39
S1131120813049F4F89480935A0710925D07109225
S11311305C070E94F9010F91FF90EF90DF90CF9030
S1131140BF90AF900895809155078F5F80935507A6
S113115008950FB6F8940F9280915C0790915D0703
S11311600F900FBE0895CF92DF92EF92FF920F93EC
S11311701F93CF93DF938091550781119BC080917A
S11311805C0790915D07019690935D0780935C07DF
S1131190E0905C07F0905D07E114F104B9F48091EC
S11311A07D0790917E0720917B0730917C073093D7
S11311B07E0720937D0790937C0780937B07809123
S11311C057078F5F809357070E940D078091020194
S11311D090910301E816F90610F4D12C53C0D12CD8
S11311E0CC24C394E0917D07F0917E078081811126
S11311F007C08FEF9FEF909303018093020142C0D9
S1131200E0917D07F0917E070580F681E02DC6818F
S1131210D7818A819B81E816F90628F4909303010B
S1131220809302012FC08E010E5F1F4FC8010E94E0
S113123067018C899D89892B21F0CE010C960E942F
S113124067018E8990915B07981710F480935B0770
S113125090E09C01220F331F220F331F220F331FF4
S1131260820F931FB8018F56984F0E941501E09189
S1131270B507F091B6079E898689981708F4B2CF0E
S1131280DC2CB0CFE091B507F091B607868990E0E9
S1131290FC01EE0FFF1FEE0FFF1FEE0FFF1F8E0F5F
S11312A09F1FFC01EF56F84F8081823048F0DD2407
S11312B0D39406C0809159078F5F80935907D12C2E
S11312C080915807882311F0DD24D3948D2DDF916C
S11312D0CF911F910F91FF90EF90DF90CF900895E1
S11312E0DF92EF92FF920F931F93CF93DF930FB68A
S11312F0F8940F92809155078150809355078091FF
S11313005507811162C080915E07811133C060C0AE
S1131310D7011596ED91FC911697C681D781CE0120
S11313200C960E9467018E010E5F1F4FC8010E9438
S113133067018E8990915B07981710F480935B077F
S113134090E09C01220F331F220F331F220F331F03
S1131350820F931FB8018F56984F0E941501E09198
S1131360B507F091B6079E898689981758F0D092F0
S1131370580708C00F2EF2E7EF2EF7E0FF2EF02DEE
S1131380DD24D394F70180818111C2CF8091590764
S1131390882399F080915907882379F0C1E00E944D
S11313A0B3088111C09358078091590781508093E5
S11313B05907809159078111F2CF809158078130E4
S11313C031F40E94330281E003C080E001C080E078
S11313D00F900FBEDF91CF911F910F91FF90EF906F
S11313E0DF90089509E617E00F2EF1E9EF2EF7E0FC
S11313F0FF2EF02D29C00E94A308D801CC910E9491
S11314007009CC2309F10FB6F8940F92D801159600
S1131410ED91FC911697C681D781CE0102960E9468
S1131420670180915E07815080935E078091680711
S11314308150809368070F900FBE8F89988D0E940A
S11314408F03CE010E948F03809168078111D3CF4F
S1131450F70180818230C0F30E943302F5CF80917E
S11314605507882321F081E080935807089510924E
S1131470580780915B0790E0FC01EE0FFF1FEE0F11
S1131480FF1FEE0FFF1F8E0F9F1FFC01EF56F84F3B
S11314908081811117C080915B07815080935B0725
S11314A080915B0790E0FC01EE0FFF1FEE0FFF1F22
S11314B0EE0FFF1F8E0F9F1FFC01EF56F84F808128
S11314C0882349F380915B0790E09C01220F331F2E
S11314D0220F331F220F331F280F391FD901AF5694
S11314E0B84F1196ED91FC9112970280F381E02D93
S11314F01296FC93EE9311972C56384FE217F3078C
S113150029F422813381FD0132832183FC01EE0F12
S1131510FF1FEE0FFF1FEE0FFF1F8E0F9F1FFC011B
S1131520EF56F84F0180F281E02D868197819093E8
S1131530B6078093B5070895CF93DF93EB016091CD
S1131540B5077091B607645F7F4F0E9436018091A2
S1131550B5079091B60702960E946701CF3F8FEFBF
S1131560D80759F46091B5077091B6076E5F7F4F45
S11315708FE597E00E94150108C080915C07909167
S11315805D078C0F9D1F0E942C07DF91CF9108955A
S1131590CF93DF93EB016091B5077091B607645F59
S11315A07F4F0E9415018091B5079091B60702966E
S11315B00E94670180915C0790915D078C0F9D1FCD
S11315C00E942C07DF91CF9108950F931F93CF931F
S11315D0DF93DC011596ED91FC911697C681D781B6
S11315E08E01045F1F4FC8010E9467018091550757
S11315F081111CC00A501109C8010E9467018E891B
S113160090915B07981710F480935B0790E09C011E
S1131610220F331F220F331F220F331F820F931FFA
S1131620B8018F56984F0E94150105C0B80182E792
S113163097E00E941501E091B507F091B6079E89E5
S11316408689891720F481E08093580701C080E0DF
S1131650DF91CF911F910F91089520915707FC01BD
S1131660208320915C0730915D07328321830895A4
S11316700FB6F8940F9240915C0750915D07DB011F
S11316802D913C912F3FBFEF3B0719F1E091570794
S1131690DC01FC91FE1739F01196ED91FC91129743
S11316A04E175F07C0F4DC011196ED91FC9112977F
S11316B0DA01AE1BBF0BA217B30778F4DB01E41BFE
S11316C0F50B2E0F3F1F2D933C930E942D0B80E0B2
S11316D005C080E003C081E001C081E00F900FBE2F
S11316E0089581E080935807089580915A078823CC
S11316F031F080915507882321F080E0089581E03E
S1131700089582E00895FC01738362839187808742
S11317104617570790F0421B530B8485958548174D
S11317205907E0F4BF016E5F7F4F8091BB07909132
S1131730BC070E94360180E008954217530718F44D
S11317406217730768F4BF016E5F7F4F8091BD0716
S11317509091BE070E94360180E0089581E00895CB
S113176081E008950FB6F8940F928091B907909193
S1131770BA07892B19F588EC97E00E9403018FEBD7
S113178097E00E94030188EC97E09093BE07809352
S1131790BD078FEB97E09093BC078093BB0740E0B5
S11317A065E08AE00E94F1049093BA078093B90738
S11317B0009721F063E671E00E94C9060F900FBE06
S11317C00895AF92BF92CF92DF92EF92FF920F9360
S11317D00E94B20B8091B9079091BA07892B91F0BE
S11317E0A12CB12CC12CD12CE12CF12C03E020E054
S11317F030E040E850E068E671E08BEF9CE00E9446
S1131800630701C080E00F91FF90EF90DF90CF90CD
S1131810BF90AF9008958F929F92BF92CF92DF9224
S1131820EF92FF920F931F93CF93DF93611571058E
S1131830D9F06901B42E7B014C0183E190E00E9450
S1131840F502EC01892B91F00E94B20B99828882F7
S1131850FD86EC86BE86D88ACF861A8B098BCE018C
S113186002960E94110102C0C0E0D0E0CE01DF91D7
S1131870CF911F910F91FF90EF90DF90CF90BF9089
S11318809F908F9008950F931F93CF93DF9300D071
S113189000D01F92CDB7DEB7E091B907F091BA0737
S11318A0309771F1D90169835B834A839D838C836B
S11318B06630ECF40E94750B823061F420E0A801DC
S11318C0BE016F5F7F4F8091B9079091BA070E9464
S11318D01F0517C020E040E050E0BE016F5F7F4F5E
S11318E08091B9079091BA070E941F050AC020E0B1
S11318F0AD01BE016F5F7F4FCF010E94CE0501C0D5
S113190080E00F900F900F900F900F90DF91CF9188
S11319101F910F910895AF92BF92CF92DF92EF92F1
S1131920FF920F931F93CF93DF936C010E94A9083A
S11319307C018091B7079091B807E816F90608F082
S113194048C030C00580F681E02DA080B180C681FA
S1131950D7818E010E5F1F4FC8010E946701E9897C
S1131960FA89CE0109958E858130E1F48C859D85B7
S11319708A0D9B1DA816B90660F49B838A83D987B8
S1131980C887B8018091BD079091BE070E943601B7
S113199009C000E010E020E030E0A50160E0CE01E5
S11319A00E94430CE091BD07F091BE078081811134
S11319B0C9CF8091BB079091BC079093BE078093D9
S11319C0BD07F093BC07E093BB0781E0F601808379
S11319D002C0F6011082F092B807E092B707C7017F
S11319E0DF91CF911F910F91FF90EF90DF90CF90F7
S11319F0BF90AF900895CF93DF9300D000D000D074
S1131A00CDB7DEB7CE0101964C01E12CF12CC82EE6
S1131A10D92CE091BD07F091BE078081882309F499
S1131A20C4C00580F681E02DA080B1800E94A30887
S1131A30C4010E948B0C8C018981811148C00A1554
S1131A401B05A8F10E947009E091BD07F091BE0743
S1131A500580F681E02D66807780C30102960E949E
S1131A606701D3011E968C911E978130B1F41C96A8
S1131A706D917C911D976A0D7B1D9501A801C30191
S1131A800E94830B813049F40E2D1F2D2E2D3F2DE6
S1131A90A50160E0C3010E94430CD3015196ED916E
S1131AA0FC915297C301099572C0AE2CBF2CB501AD
S1131AB0601B710B8091B9079091BA070E94F006E0
S1131AC00E947009811163C00E94330260C00E94A9
S1131AD070095DC0898188230CF459C0AC80BD8035
S1131AE0F50182859385892B21F0C50102960E9418
S1131AF06701CE0106960E948B0CE9810E2FEE0F32
S1131B00110B220B330B0A30110508F040C0F80109
S1131B10EC5CFF4F0C940B0E2A813B81D5011C9683
S1131B206D917C911D97620F731FAC01C5010E94DA
S1131B30830B813061F5D5015196ED91FC9152975B
S1131B40C5010995F5018685813009F54A815B81D6
S1131B5084859585480F591F0E2D1F2D2E2D3F2D41
S1131B6060E0C5010E94430C12C06A817B81D501EB
S1131B701D967C936E931C97680F791F9C01AC0192
S1131B80C5010E94830B03C0C5010E948F0320E09E
S1131B904E2D5F2D6C2D7D2D8091B9079091BA0744
S1131BA00E941D06811196CF34CF0E94A308C40160
S1131BB00E948B0C8C018981882309F476CF87CF0E
S1131BC01092C50087E68093C4008CE18093C10025
S1131BD086E08093C2000895E0ECF0E0908195FFE8
S1131BE0FDCF8093C6000895CF93DF93EC018881E5
S1131BF0882331F021960E94EC0D89918111FBCF4D
S1131C00DF91CF910895E0ECF0E080818823ECF738
S1131C108091C6000895EE0FFF1F0590F491E02D0A
S1131C200994FB01DC0102C001900D924150504027
S10B1C30D8F70895F894FFCFE2
S1131C38DB05FFFF54797065206368617261637422
S1131C4865722064202C2069202C2073202C20729B
S1131C58200D0A00796F75205479706564203A2044
S1131C680A0057726F6E6720436861726163746516
S1131C7872202C2045786974696E672E2E2E200AEE
S1131C880054696D657231005461736B31004944C5
S1131C984C4500546D725100546D722053766300A4
S9030000FC
