:100000000C9434000C94590B0C94860B0C945100F6
:100010000C9451000C9451000C9451000C9451001C
:100020000C9451000C9451000C9451000C94F90262
:100030000C9451000C9451000C9451000C945100FC
:100040000C9451000C9451000C9451000C945100EC
:100050000C9451000C9451000C9451000C945100DC
:100060000C9451000C94510011241FBECFEFD8E026
:10007000DEBFCDBF11E0A0E0B1E0E2ECF7E102C0ED
:1000800005900D92A438B107D9F727E0A4E8B1E0B4
:1000900001C01D92A03DB207E1F70E94E4000C945C
:1000A000DF0B0C940000CF93DF9300D000D0CDB7CE
:1000B000DEB70E948C079C838B8320E041E250E0F6
:1000C000BE016F5F7F4F8091CE079091CF070E9456
:1000D0003005813061F48EE091E00E94C70B898188
:1000E0009A810E94C70B85E291E00E94C70B68EEDF
:1000F00073E0CE0103960E94DA08DFCFCF93DF933F
:1001000000D0CDB7DEB71A8219820E9496074091BF
:10011000CA075091CB076091CC077091CD07A0E042
:10012000B0E0841B950BA60BB70B853F9140A10552
:10013000B10508F444C0E0918401F0918501EE0F0F
:10014000FF1FE050FF4F808191819A83898320E0D7
:1001500040E050E0BE016F5F7F4F8091CE079091ED
:10016000CF070E94F804082E000C990BAA0BBB0BBA
:100170008093CA079093CB07A093CC07B093CD0789
:100180000E949607A0E0B0E08093CA079093CB0747
:10019000A093CC07B093CD07809184019091850105
:1001A00001969093850180938401809184019091C0
:1001B0008501059724F010928501109284010F901B
:1001C0000F90DF91CF910895F89441E050E06EE7F1
:1001D00070E080E090E00E94360B0E94B30B40E09C
:1001E00062E085E00E94CC049093CF078093CE0715
:1001F000892BA9F0A12CB12CC12CD12CE12CF12CF4
:1002000002E020E030E040E051E068E271E083E5A8
:1002100090E00E94490678940E94570704C081E349
:1002200091E00E94C70BFFCFFC010396928381836C
:100230002FEF3FEF348323839683858390878783D3
:1002400010820895FC01118610860895CF93DF93E4
:100250009C01FB01DC011196CD91DC911297D383B7
:10026000C2838C819D81958384838C819D81DC01F7
:1002700013967C936E9312977D836C8331872087CE
:10028000F90180818F5F8083DF91CF910895CF93B3
:10029000DF93EB01488159814F3F2FEF520721F443
:1002A000FC01A781B0850DC0DC01139601C0DF0100
:1002B0001296ED91FC9113972081318142175307DB
:1002C000B0F71296ED91FC911397FB83EA83D583E7
:1002D000C483BD83AC831396DC93CE931297998726
:1002E0008887FC0120812F5F2083DF91CF910895C3
:1002F000CF93DF93FC01A085B185C281D381848136
:1003000095819D838C83C481D581828193819B83D8
:100310008A8311968D919C911297E817F90731F411
:100320008481958112969C938E93119711861086E5
:100330008C9181508C93DF91CF91089531E1FC0134
:100340003083319722E220833197A3E3A083319752
:1003500060833197708331971082319760E86083B2
:1003600031971082319762E06083319763E0608358
:10037000319764E06083319765E06083319766E090
:100380006083319767E06083319768E060833197DD
:1003900069E06083319760E1608331973083319702
:1003A00032E13083319733E13083319734E1308368
:1003B000319735E13083319736E13083319737E13A
:1003C0003083319738E13083319739E13083319789
:1003D00030E23083319731E2308331972083319797
:1003E00023E220833197408331975083319726E26F
:1003F0002083319727E22083319728E220833197A9
:1004000029E22083319720E32083319721E3208361
:1004100086970895109289008CE7809388008BE07E
:1004200080938100EFE6F0E0808182608083A0917C
:10043000C407B091C507CD91CDBFDD91DEBFFF915F
:10044000EF91DF91CF91BF91AF919F918F917F916C
:100450006F915F914F913F912F911F910F91FF905D
:10046000EF90DF90CF90BF90AF909F908F907F9054
:100470006F905F904F903F902F901F900F900FBE06
:100480000F90089581E008950F920FB6F8940F929F
:100490001F9211242F923F924F925F926F927F9200
:1004A0008F929F92AF92BF92CF92DF92EF92FF9284
:1004B0000F931F932F933F934F935F936F937F936C
:1004C0008F939F93AF93BF93CF93DF93EF93FF935C
:1004D000A091C407B091C5070DB60D920EB60D924E
:1004E0000E945909A091C407B091C507CD91CDBF15
:1004F000DD91DEBFFF91EF91DF91CF91BF91AF9181
:100500009F918F917F916F915F914F913F912F912B
:100510001F910F91FF90EF90DF90CF90BF90AF9021
:100520009F908F907F906F905F904F903F902F9013
:100530001F900F900FBE0F9008950F920FB6F89472
:100540000F921F9211242F923F924F925F926F92BF
:100550007F928F929F92AF92BF92CF92DF92EF9253
:10056000FF920F931F932F933F934F935F936F933C
:100570007F938F939F93AF93BF93CF93DF93EF932B
:10058000FF93A091C407B091C5070DB60D920EB6AA
:100590000D920E949B0781110E945909A091C407E6
:1005A000B091C507CD91CDBFDD91DEBFFF91EF9139
:1005B000DF91CF91BF91AF919F918F917F916F917B
:1005C0005F914F913F912F911F910F91FF90EF906D
:1005D000DF90CF90BF90AF909F908F907F906F9063
:1005E0005F904F903F902F901F900F900FBE0F90F5
:1005F00008950E949D0218950F931F93CF93DF9348
:10060000EC010E9486078091860181111DC0EBE8F4
:10061000F1E080E991E09183808313821282E7E820
:10062000F1E08BED95E09383828311821082AFE835
:10063000B1E014969C938E9313971296FC93EE93CD
:10064000119781E080938601209709F45FC09E0195
:100650002C5F3F4F2396CA3DD54008F05AC0E09129
:100660008B01F0918C01ABE8B1E002C0DF01FC012D
:10067000828193818217930720F480819181009772
:10068000A9F7C1E0E738FC0709F446C0CD91DC9139
:1006900011978E010C5F1F4F808191818D939C93E8
:1006A00082819381821B930B8930910510F1BF01E8
:1006B000620F731FDB0113969C938E931297338303
:1006C000228312964D915C9113978BE891E001C0C3
:1006D000CD01EC01A881B98112962D913C9113971F
:1006E00024173507A8F3EB01B983A883DC016D93C8
:1006F0007C9380910A0190910B0122813381821BAE
:10070000930B90930B0180930A0108C000E010E066
:1007100005C000E010E002C000E010E00E945808B0
:10072000C801DF91CF911F910F9108950F931F93EF
:10073000CF93DF93009741F1EC018C010450110934
:100740000E948607F80142815381ABE8B1E001C005
:10075000DF01ED91FC911197228133812417350738
:10076000B8F32497F983E8830D931C9320910A0131
:1007700030910B018A819B81820F931F90930B0113
:1007800080930A010E945808DF91CF911F910F9129
:1007900008951F93CF93DF93EC01142F4C8D4111DB
:1007A0000CC088819981892B09F045C08A819B8181
:1007B0000E94E40A1B821A8245C0111117C050E042
:1007C0008C819D810E94D60B2C8D8C819D81820F06
:1007D000911D9D838C832A813B818217930768F149
:1007E000888199819D838C8380E02CC050E08E812C
:1007F0009F810E94D60B8C8D90E0919581959109F7
:100800002E813F81280F391F3F832E8348815981D4
:100810002417350730F42A813B81820F931F9F8371
:100820008E83123061F48A8D882359F08A8D81502D
:100830008A8F80E007C080E005C080E003C080E0D0
:1008400001C080E09A8D9F5F9A8FDF91CF911F91B9
:100850000895FC01448D4423A9F050E0268137819E
:10086000240F351F37832683828193812817390708
:1008700020F08081918197838683CB016681778187
:100880000E94D60B08950F931F93CF93DF93EC0133
:100890000FB6F8940F928E8D1816BCF489898111C9
:1008A00005C013C08989811104C00FC08E010F5E7D
:1008B0001F4FC8010E94F20981110E947E0A8E8D8D
:1008C00081508E8F8E8D18166CF38FEF8E8F0F9058
:1008D0000FBE0FB6F8940F928D8D1816BCF4888554
:1008E000811105C013C08885811104C00FC08E011D
:1008F000085F1F4FC8010E94F20981110E947E0A01
:100900008D8D81508D8F8D8D18166CF38FEF8D8F9F
:100910000F900FBEDF91CF911F910F910895CF934C
:10092000DF93EC010FB6F8940F92488159812C8D1A
:1009300030E07B8D729FC001739F900D1124FA01EE
:10094000E80FF91FFB83EA831A8E5D834C83821BB9
:10095000930B840F951F9F838E838FEF8D8F8E8FC8
:1009600061110CC08885882389F0CE0108960E9409
:10097000F209813059F40E94440208C0CE01089661
:100980000E941401CE0141960E9414010F900FBEE7
:1009900081E0DF91CF9108950F931F93CF93DF9361
:1009A000082F162F6623B9F0869FC0011124809668
:1009B0000E94FC02EC01009721F414C0D983C88383
:1009C00003C04F96998388830B8F1C8F61E0CE0103
:1009D0000E948F0407C08FE190E00E94FC02EC01AE
:1009E000892B61F7CE01DF91CF911F910F9108956F
:1009F0000F931F93CF93DF93FA01DC015A965C911A
:100A00005A975B963C91531710F02230E9F4422F2D
:100A10008F01EC010E94C9038E8D8F3F81F489897B
:100A20008823A1F0CE0141960E94F209882381F02B
:100A30000115110579F081E0F80180830CC08E8DDD
:100A40008F5F8E8F81E007C080E005C081E003C02A
:100A500081E001C081E0DF91CF911F910F91089556
:100A60009F92AF92BF92CF92DF92EF92FF920F933D
:100A70001F93CF93DF9300D000D01F92CDB7DEB786
:100A80008C016B015D834C83922EB12CAA24A3941C
:100A90007C0181E1E80EF11C0FB6F8940F92F80189
:100AA000828D882399F1E680F780B601C8010E9403
:100AB000290491101AC0F801828D8150828F8081A3
:100AC0009181892B29F40E94240BF801938382835E
:100AD000F80180858823B1F0C80108960E94F209C8
:100AE000813081F40E9444020DC0F801F782E68251
:100AF0008189882339F0C80141960E94F209811149
:100B00000E9444020F900FBE81E05CC08C819D81E9
:100B1000892B21F40F900FBE80E054C0B11005C0A6
:100B2000CE0101960E943A0ABA2C0F900FBE0E9485
:100B300086070FB6F8940F92F801858D8F3F09F460
:100B4000158EF801868D8F3F09F4168E0F900FBE1B
:100B5000BE016C5F7F4FCE0101960E94450A811154
:100B60002BC00FB6F8940F92F801828D0F900FBE34
:100B700081111CC080819181892B49F40FB6F894B2
:100B80000F92828193810E94820A0F900FBE6C8126
:100B90007D81C7010E94C609C8010E9443040E94CA
:100BA0005808811179CF0E94440276CFC8010E9473
:100BB00043040E94580870CFC8010E9443040E9459
:100BC000580880E00F900F900F900F900F90DF91DA
:100BD000CF911F910F91FF90EF90DF90CF90BF903A
:100BE000AF909F900895E0919507F09196078081CE
:100BF000811107C08FEF9FEF90930D0180930C013F
:100C00000895E0919507F09196070580F681E02D13
:100C10000680F781E02D8281938190930D0180936E
:100C20000C010895CF93DF93EC01E091C407F0919C
:100C3000C507938382838091720790917307C817C9
:100C4000D90768F46091C4077091C5078091930734
:100C5000909194076E5F7F4F0E94470117C060918B
:100C6000C4077091C50780919507909196076E5FB4
:100C70007F4F0E94470180910C0190910D01C81790
:100C8000D90720F4D0930D01C0930C01DF91CF91CF
:100C900008954F925F926F927F928F929F92AF9240
:100CA000BF92CF92DF92EF92FF920F931F93CF9359
:100CB000DF934C01EB015A012901C114D10439F42D
:100CC000CA010E94FC026C01892B09F4DEC088E293
:100CD00090E00E94FC023C01009779F0FC01D08E6C
:100CE000C78AF1E0AF1AB108CA0CDB1C8881F30196
:100CF000818F8881811105C014C0C6010E949603AE
:100D0000C4C0D3015A96FE0131969E01285F3F4F21
:100D1000EF0181918D938881882319F0E217F30701
:100D2000B9F7F30110A2102F033008F012E0F3011D
:100D3000168B11A312A2E3012296CE010E9422017A
:100D4000C3010C960E942201F3017186608683E044
:100D500090E0811B910995878487738A628A13A228
:100D600014A215A216A217A2A201B401C6010E94E4
:100D70009E01F30191838083E114F10419F0F701DE
:100D8000718260820FB6F8940F92809174078F5F22
:100D9000809374078091C4079091C507892BA9F5AA
:100DA0007092C5076092C407809174078130E1F5A5
:100DB00089EA97E00E94140182EB97E00E941401F7
:100DC0008BEB97E00E94140180EA97E00E941401E7
:100DD00087E997E00E9414018AE897E00E941401D5
:100DE00081E897E00E94140187E797E00E941401D0
:100DF00080EA97E0909396078093950787E997E0BC
:100E000090939407809393070FC08091700781118E
:100E10000BC0E091C407F091C5078689081720F040
:100E20007092C5076092C40780916C078F5F8093B2
:100E30006C07F301868990917107981710F48093DD
:100E4000710790E09C01220F331F220F331F220FE6
:100E5000331F820F931FBE018755984F0E942601B2
:100E60000F900FBE80917007882359F0E091C4075E
:100E7000F091C5078689801730F40E94440281E012
:100E800005C081E003C081E001C08FEFDF91CF9109
:100E90001F910F91FF90EF90DF90CF90BF90AF9098
:100EA0009F908F907F906F905F904F900895AF923A
:100EB000BF92CF92DF92EF92FF920F93A12CB12CB1
:100EC000C12CD12C0F2EF5E7EF2EF7E0FF2EF02DE1
:100ED00000E020E030E045E550E06EE771E08CE1B5
:100EE00099E00E944906813049F4F8948093700794
:100EF00010927307109272070E940A020F91FF90DE
:100F0000EF90DF90CF90BF90AF90089580916B07E6
:100F10008F5F80936B0708950FB6F8940F928091BE
:100F20007207909173070F900FBE0895809172071A
:100F3000909173070895CF92DF92EF92FF920F93F3
:100F40001F93CF93DF9380916B0781119BC080919A
:100F500072079091730701969093730780937207BD
:100F6000E0907207F0907307E114F104B9F48091F6
:100F700095079091960720919307309194073093AD
:100F800096072093950790939407809393078091F9
:100F90006D078F5F80936D070E94F30580910C01B0
:100FA00090910D01E816F90610F4D12C53C0D12C04
:100FB000CC24C394E0919507F0919607808181112C
:100FC00007C08FEF9FEF90930D0180930C0142C0FB
:100FD000E0919507F09196070580F681E02DC68196
:100FE000D7818A819B81E816F90628F490930D0138
:100FF00080930C012FC08E010E5F1F4FC8010E940D
:1010000078018C899D89892B21F0CE010C960E9454
:1010100078018E8990917107981710F48093710769
:1010200090E09C01220F331F220F331F220F331F2A
:10103000820F931FB8018755984F0E942601E091B7
:10104000C407F091C5079E898689981708F4B2CF26
:10105000DC2CB0CFE091C407F091C507868990E001
:10106000FC01EE0FFF1FEE0FFF1FEE0FFF1F8E0F95
:101070009F1FFC01E755F84F8081823048F0DD2446
:10108000D39406C080916F078F5F80936F07D12C38
:1010900080916E07882311F0DD24D3948D2DDF918C
:1010A000CF911F910F91FF90EF90DF90CF90089517
:1010B000DF92EF92FF920F931F93CF93DF930FB6C0
:1010C000F8940F9280916B07815080936B07809109
:1010D0006B07811162C080917407811133C060C0B9
:1010E000D7011596ED91FC911697C681D781CE0157
:1010F0000C960E9478018E010E5F1F4FC8010E945E
:1011000078018E8990917107981710F48093710778
:1011100090E09C01220F331F220F331F220F331F39
:10112000820F931FB8018755984F0E942601E091C6
:10113000C407F091C5079E898689981758F0D09208
:101140006E0708C00F2EFAE8EF2EF7E0FF2EF02D05
:10115000DD24D394F70180818111C2CF80916F0784
:10116000882399F080916F07882379F0C1E00E946D
:101170009B078111C0936E0780916F078150809308
:101180006F0780916F078111F2CF80916E078130D8
:1011900031F40E94440281E003C080E001C080E09D
:1011A0000F900FBEDF91CF911F910F91FF90EF90A5
:1011B000DF9008950F931F93CF93DF938C01EB0182
:1011C0000E9486072091720730917307F801808191
:1011D0009181C80FD91F2817390748F4C817D907B4
:1011E00010F5D183C0832C173D0790F407C0C817B2
:1011F000D907A8F02C173D0790F015C08091C407BF
:101200009091C50702960E947801CE010E941206B5
:101210000E94580881110BC00E94440208C0F801C6
:10122000D183C083EBCFF801D183C083F1CFDF91AD
:10123000CF911F910F91089501E817E00F2EF9EA61
:10124000EF2EF7E0FF2EF02D29C00E948607D8016F
:10125000CC910E945808CC2309F10FB6F8940F9254
:10126000D8011596ED91FC911697C681D781CE01D4
:1012700002960E94780180917407815080937407D0
:10128000809180078150809380070F900FBE8F89D7
:10129000988D0E949603CE010E949603809180074C
:1012A0008111D3CFF70180818230C0F30E944402C4
:1012B000F5CF80916B07882321F081E080936E0742
:1012C000089510926E078091710790E0FC01EE0F77
:1012D000FF1FEE0FFF1FEE0FFF1F8E0F9F1FFC0162
:1012E000E755F84F8081811117C0809171078150B7
:1012F000809371078091710790E0FC01EE0FFF1F52
:10130000EE0FFF1FEE0FFF1F8E0F9F1FFC01E75513
:10131000F84F8081882349F38091710790E09C0108
:10132000220F331F220F331F220F331F280F391FA5
:10133000D901A755B84F1196ED91FC9112970280F3
:10134000F381E02D1296FC93EE9311972455384FBC
:10135000E217F30729F422813381FD0132832183CF
:10136000FC01EE0FFF1FEE0FFF1FEE0FFF1F8E0F92
:101370009F1FFC01E755F84F0180F281E02D868127
:1013800097819093C5078093C4070895CF93DF9307
:10139000EB016091C4077091C507645F7F4F0E94A5
:1013A00047018091C4079091C50702960E94780179
:1013B000CF3F8FEFD80759F46091C4077091C507EC
:1013C0006E5F7F4F87E797E00E94260108C08091FB
:1013D0007207909173078C0F9D1F0E941206DF9178
:1013E000CF9108950F931F93CF93DF93DC01159650
:1013F000ED91FC911697C681D7818E01045F1F4F36
:10140000C8010E94780180916B0781111CC00A50AD
:101410001109C8010E9478018E899091710798176F
:1014200010F48093710790E09C01220F331F220F6C
:10143000331F220F331F820F931FB8018755984F18
:101440000E94260105C0B8018AE897E00E942601A3
:10145000E091C407F091C5079E898689891720F419
:1014600081E080936E0701C080E0DF91CF911F91F2
:101470000F91089520916D07FC0120832091720740
:10148000309173073283218308950FB6F8940F9239
:101490004091720750917307DB012D913C912F3FD2
:1014A000BFEF3B0719F1E0916D07DC01FC91FE17DE
:1014B00039F01196ED91FC9112974E175F07C0F429
:1014C000DC011196ED91FC911297DA01AE1BBF0B76
:1014D000A217B30778F4DB01E41BF50B2E0F3F1FB7
:1014E0002D933C930E943A0A80E005C080E003C03F
:1014F00081E001C081E00F900FBE089581E08093EC
:101500006E0708950F931F93CF93DF93FC01892BF0
:1015100009F455C02689A091C407B091C507569615
:101520008C91281708F04BC084859585992364F029
:10153000A091C407B091C50756963C9183E090E016
:10154000831B91099587848730E0C901880F991F13
:10155000880F991F880F991F280F391F2755384F5B
:10156000828593858217930719F58F01EF012296E3
:10157000CE010E947801E091C407F091C5078689E9
:10158000F801868B90917107981710F4809371077A
:1015900090E09C01220F331F220F331F220F331FB5
:1015A000820F931FBE018755984F0E94260107C0E6
:1015B000A091C407B091C50756968C91868BDF9198
:1015C000CF911F910F9108950F931F93CF93DF93A6
:1015D000FC01892B79F182A1815082A3268991A1F6
:1015E000291751F181112AC0EF018F010E5F1F4FA2
:1015F000C8010E94780189A18E8B23E030E0281B6E
:1016000031093D872C8790917107981710F48093CA
:10161000710790E09C01220F331F220F331F220F0E
:10162000331F820F931FB8018755984F0E942601E0
:1016300081E005C080E003C080E001C080E0DF9170
:10164000CF911F910F9108958091C4079091C50784
:10165000892B39F0E091C407F091C50782A18F5F13
:1016600082A38091C4079091C5070895823000F548
:10167000E82FF0E0EE0FFF1FEA53F84F718360830D
:10168000882319F0813049F00895E9E6F0E080817F
:101690008C7F482B4083E89A0895E9E6F0E080814A
:1016A000837F440F551F440F551F482B4083E99AF1
:1016B00008951F920F920FB60F9211242F933F930C
:1016C0004F935F936F937F938F939F93AF93BF934A
:1016D000EF93FF938091C6079091C707892B29F05C
:1016E000E091C607F091C7070995FF91EF91BF916F
:1016F000AF919F918F917F916F915F914F913F91AA
:101700002F910F900FBE0F901F9018951F920F9260
:101710000FB60F9211242F933F934F935F936F93C4
:101720007F938F939F93AF93BF93EF93FF9380919A
:10173000C8079091C907892B29F0E091C807F0915B
:10174000C9070995FF91EF91BF91AF919F918F913B
:101750007F916F915F914F913F912F910F900FBEAD
:101760000F901F9018951092C50087E68093C400D3
:101770008CE18093C10086E08093C2000895E0EC84
:10178000F0E0908195FFFDCF8093C6000895CF9340
:10179000DF93EC018881882331F021960E94BF0BF2
:1017A00089918111FBCFDF91CF910895FB01DC017D
:1017B00002C001900D9241505040D8F70895F8941E
:0217C000FFCF59
:1017C200500157015E0165016C01DB05FFFF5265A7
:1017D2006365697665643D2073797374656D207203
:1017E200756E7320000D0A00526563656976657235
:1017F2000054686520717565756520636F756C644A
:10180200206E6F7420626520637265617465640086
:10181200547261636B3100547261636B32005472B3
:1018220061636B3300547261636B340054726163A1
:101832006B3500747275650066616C7365004944AE
:041842004C45000011
:00000001FF
