:100000000C9434000C94060B0C94330B0C9451009C
:100010000C9451000C9451000C9451000C9451001C
:100020000C9451000C9451000C9451000C94C90292
:100030000C9451000C9451000C9451000C945100FC
:100040000C9451000C9451000C9451000C945100EC
:100050000C9451000C9451000C9451000C945100DC
:100060000C9451000C94510011241FBECFEFD8E026
:10007000DEBFCDBF11E0A0E0B1E0ECE1F7E102C0EE
:1000800005900D92AA36B107D9F727E0AAE6B1E0AC
:1000900001C01D92A93BB207E1F70E94BB000C947E
:1000A0008C0B0C940000CF93DF93CDB7DEB76E9727
:1000B0000FB6F894DEBF0FBECDBF20E04FEF5FEF6D
:1000C00060E070E08091B7079091B8070E942C051E
:1000D0008823C1F084E3E4E0F1E0DE0111960190B1
:1000E0000D928A95E1F7CE0101960E94740B20E0F3
:1000F00040E050E060E070E08091B7079091B80771
:100100000E945F048CEB92E00E94CC08D6CFCF9384
:10011000DF93CDB7DEB76E970FB6F894DEBF0FBE94
:10012000CDBF20E04FEF5FEF60E070E08091B70758
:100130009091B8070E942C058823C1F083E1E8E381
:10014000F1E0DE01119601900D928A95E1F7CE0162
:1001500001960E94740B20E040E050E060E070E007
:100160008091B7079091B8070E945F0484EF91E0F7
:100170000E94CC08D6CF0E94600B81E00E9400054F
:100180009093B8078093B707892BE9F0A12CB12C85
:10019000C12CD12CE12CF12C01E020E030E040E03A
:1001A00051E06BE471E083E590E00E94450620E0B9
:1001B00030E040E051E062E571E087E890E00E94C5
:1001C00045060E945807FFCFFC0103969283818366
:1001D0002FEF3FEF34832383968385839087878334
:1001E00010820895FC01118610860895CF93DF9345
:1001F0009C01FB01DC011196CD91DC911297D38318
:10020000C2838C819D81958384838C819D81DC0157
:1002100013967C936E9312977D836C83318720872E
:10022000F90180818F5F8083DF91CF910895CF9313
:10023000DF93EB01488159814F3F2FEF520721F4A3
:10024000FC01A781B0850DC0DC01139601C0DF0160
:100250001296ED91FC91139720813181421753073B
:10026000B0F71296ED91FC911397FB83EA83D58347
:10027000C483BD83AC831396DC93CE931297998786
:100280008887FC0120812F5F2083DF91CF91089523
:10029000CF93DF93FC01A085B185C281D381848196
:1002A00095819D838C83C481D581828193819B8339
:1002B0008A8311968D919C911297E817F90731F472
:1002C0008481958112969C938E9311971186108646
:1002D0008C9181508C93DF91CF91089531E1FC0195
:1002E0003083319722E220833197A3E3A0833197B3
:1002F00060833197708331971082319760E8608313
:1003000031971082319762E06083319763E06083B8
:10031000319764E06083319765E06083319766E0F0
:100320006083319767E06083319768E0608331973D
:1003300069E06083319760E1608331973083319762
:1003400032E13083319733E13083319734E13083C8
:10035000319735E13083319736E13083319737E19A
:100360003083319738E13083319739E130833197E9
:1003700030E23083319731E23083319720833197F7
:1003800023E220833197408331975083319726E2CF
:100390002083319727E22083319728E22083319709
:1003A00029E22083319720E32083319721E32083C2
:1003B00086970895109289008CE7809388008BE0DF
:1003C00080938100EFE6F0E0808182608083A091DD
:1003D000B107B091B207CD91CDBFDD91DEBFFF91E6
:1003E000EF91DF91CF91BF91AF919F918F917F91CD
:1003F0006F915F914F913F912F911F910F91FF90BE
:10040000EF90DF90CF90BF90AF909F908F907F90B4
:100410006F905F904F903F902F901F900F900FBE66
:100420000F90089581E008950F920FB6F8940F92FF
:100430001F9211242F923F924F925F926F927F9260
:100440008F929F92AF92BF92CF92DF92EF92FF92E4
:100450000F931F932F933F934F935F936F937F93CC
:100460008F939F93AF93BF93CF93DF93EF93FF93BC
:10047000A091B107B091B2070DB60D920EB60D92D4
:100480000E942909A091B107B091B207CD91CDBFCB
:10049000DD91DEBFFF91EF91DF91CF91BF91AF91E1
:1004A0009F918F917F916F915F914F913F912F918C
:1004B0001F910F91FF90EF90DF90CF90BF90AF9082
:1004C0009F908F907F906F905F904F903F902F9074
:1004D0001F900F900FBE0F9008950F920FB6F894D3
:1004E0000F921F9211242F923F924F925F926F9220
:1004F0007F928F929F92AF92BF92CF92DF92EF92B4
:10050000FF920F931F932F933F934F935F936F939C
:100510007F938F939F93AF93BF93CF93DF93EF938B
:10052000FF93A091B107B091B2070DB60D920EB630
:100530000D920E948D0781110E942909A091B10797
:10054000B091B207CD91CDBFDD91DEBFFF91EF91AC
:10055000DF91CF91BF91AF919F918F917F916F91DB
:100560005F914F913F912F911F910F91FF90EF90CD
:10057000DF90CF90BF90AF909F908F907F906F90C3
:100580005F904F903F902F901F900F900FBE0F9055
:1005900008950E946D0218950F931F93CF93DF93D8
:1005A000EC010E94870780916A0181111DC0EFE66E
:1005B000F1E084E791E09183808313821282EBE67D
:1005C000F1E08BED95E09383828311821082A3E7A3
:1005D000B1E014969C938E9313971296FC93EE932E
:1005E000119781E080936A01209709F45FC09E0112
:1005F0002C5F3F4F2396CA3DD54008F05AC0E0918A
:100600006F01F0917001AFE6B1E002C0DF01FC01C3
:10061000828193818217930720F4808191810097D2
:10062000A9F7C1E0EB36FC0709F446C0CD91DC9197
:1006300011978E010C5F1F4F808191818D939C9348
:1006400082819381821B930B8930910510F1BF0148
:10065000620F731FDB0113969C938E931297338363
:10066000228312964D915C9113978FE691E001C021
:10067000CD01EC01A881B98112962D913C9113977F
:1006800024173507A8F3EB01B983A883DC016D9328
:100690007C93809100019091010122813381821B22
:1006A000930B909301018093000108C000E010E0DB
:1006B00005C000E010E002C000E010E00E944A081F
:1006C000C801DF91CF911F910F9108950F931F9350
:1006D000CF93DF93009741F1EC018C010450110995
:1006E0000E948707F80142815381AFE6B1E001C063
:1006F000DF01ED91FC911197228133812417350799
:10070000B8F32497F983E8830D931C93209100019B
:10071000309101018A819B81820F931F9093010187
:10072000809300010E944A08DF91CF911F910F91A1
:1007300008951F93CF93DF93EC01142F4C8D41113B
:100740000CC088819981892B09F045C08A819B81E1
:100750000E94B40A1B821A8245C0111117C050E0D2
:100760008C819D810E94830B2C8D8C819D81820FB9
:10077000911D9D838C832A813B818217930768F1A9
:10078000888199819D838C8380E02CC050E08E818C
:100790009F810E94830B8C8D90E0919581959109AA
:1007A0002E813F81280F391F3F832E834881598135
:1007B0002417350730F42A813B81820F931F9F83D2
:1007C0008E83123061F48A8D882359F08A8D81508E
:1007D0008A8F80E007C080E005C080E003C080E031
:1007E00001C080E09A8D9F5F9A8FDF91CF911F911A
:1007F0000895FC01448D4423A9F050E026813781FF
:10080000240F351F37832683828193812817390768
:1008100020F08081918197838683CB0166817781E7
:100820000E94830B08950F931F93CF93DF93EC01E6
:100830000FB6F8940F928E8D1816BCF48989811129
:1008400005C013C08989811104C00FC08E010F5EDD
:100850001F4FC8010E94C20981110E944E0A8E8D4D
:1008600081508E8F8E8D18166CF38FEF8E8F0F90B8
:100870000FBE0FB6F8940F928D8D1816BCF48885B4
:10088000811105C013C08885811104C00FC08E017D
:10089000085F1F4FC8010E94C20981110E944E0AC1
:1008A0008D8D81508D8F8D8D18166CF38FEF8D8F00
:1008B0000F900FBEDF91CF911F910F9108959F92DE
:1008C000AF92BF92CF92DF92EF92FF920F931F935E
:1008D000CF93DF9300D000D01F92CDB7DEB78C014D
:1008E0006B015D834C83A22EB12C992493947C01DF
:1008F00088E0E80EF11C0FB6F8940F92F801928D83
:10090000838D981718F0F2E0AF1219C04A2DB60186
:10091000C8010E949903F8019189992349F0C801FF
:1009200041960E94C209813031F40E94140203C032
:1009300081110E9414020F900FBE81E050C08C8183
:100940009D81892B21F40F900FBE80E048C0B1102B
:1009500005C0CE0101960E940A0AB92C0F900FBE65
:100960000E9487070FB6F8940F92F801858D8F3F8C
:1009700009F4158EF801868D8F3F09F4168E0F90BD
:100980000FBEBE016C5F7F4FCE0101960E94150A1B
:1009900081111FC00FB6F8940F92F801928D0F903D
:1009A0000FBE838D98130FC06C817D81C7010E949B
:1009B0009609C8010E9413040E944A0881119BCF26
:1009C0000E94140298CFC8010E9413040E944A0892
:1009D00092CFC8010E9413040E944A0880E00F9041
:1009E0000F900F900F900F90DF91CF911F910F916B
:1009F000FF90EF90DF90CF90BF90AF909F900895C1
:100A0000CF93DF938FE190E00E94CC02EC01892B21
:100A1000F9F01B821A82198218821D821C821F82A1
:100A20001E821A8E81E08B8F1C8E8FEF8D8F8E8FA2
:100A3000CE0108960E94E400CE0141960E94E40097
:100A400020E040E050E060E070E0CE010E945F04F2
:100A5000CE01DF91CF9108959F92AF92BF92CF9236
:100A6000DF92EF92FF920F931F93CF93DF9300D00B
:100A700000D01F92CDB7DEB78C016B015D834C8334
:100A8000922EB12CAA24A3947C0181E1E80EF11CE2
:100A90000FB6F8940F92F801828D882399F1E680C1
:100AA000F780B601C8010E94F90391101AC0F8013D
:100AB000828D8150828F80819181892B29F40E94BF
:100AC000F40AF80193838283F80180858823B1F0CA
:100AD000C80108960E94C209813081F40E94140264
:100AE0000DC0F801F782E6828189882339F0C801B8
:100AF00041960E94C20981110E9414020F900FBEFC
:100B000081E05CC08C819D81892B21F40F900FBE08
:100B100080E054C0B11005C0CE0101960E940A0ABF
:100B2000BA2C0F900FBE0E9487070FB6F8940F9251
:100B3000F801858D8F3F09F4158EF801868D8F3F62
:100B400009F4168E0F900FBEBE016C5F7F4FCE0171
:100B500001960E94150A81112BC00FB6F8940F92CE
:100B6000F801828D0F900FBE81111CC08081918190
:100B7000892B49F40FB6F8940F92828193810E94D9
:100B8000520A0F900FBE6C817D81C7010E949609A9
:100B9000C8010E9413040E944A08811179CF0E9463
:100BA000140276CFC8010E9413040E944A0870CF35
:100BB000C8010E9413040E944A0880E00F900F9021
:100BC0000F900F900F90DF91CF911F910F91FF9099
:100BD000EF90DF90CF90BF90AF909F900895E091FD
:100BE0007907F0917A078081811107C08FEF9FEF1D
:100BF00090930301809302010895E0917907F091A9
:100C00007A070580F681E02D0680F781E02D82814C
:100C1000938190930301809302010895CF93DF9312
:100C2000EC01E091B107F091B20793838283809148
:100C3000560790915707C817D90768F46091B10714
:100C40007091B20780917707909178076E5F7F4F20
:100C50000E94170117C06091B1077091B20780918F
:100C6000790790917A076E5F7F4F0E9417018091FC
:100C7000020190910301C817D90720F4D093030112
:100C8000C0930201DF91CF9108954F925F926F92CE
:100C90007F928F929F92AF92BF92CF92DF92EF920C
:100CA000FF920F931F93CF93DF934C01EB015A01F7
:100CB0002901C114D10439F4CA010E94CC026C018B
:100CC000892B09F4E3C088E290E00E94CC023C0149
:100CD000009779F0FC01D08EC78AF1E0AF1AB10815
:100CE000CA0CDB1C8881F301818F8881811105C0CA
:100CF00014C0C6010E946603C9C0D3015A96FE0102
:100D000031969E01285F3F4FEF0181918D9388813D
:100D1000882319F0E217F307B9F7F30110A2102F97
:100D2000043008F013E0F301168B11A312A2E301C3
:100D30002296CE010E94F200C3010C960E94F2009E
:100D4000F3017186608684E090E0811B91099587AC
:100D50008487738A628A13A214A215A216A217A20C
:100D6000A201B401C6010E946E01F3019183808348
:100D7000E114F10419F0F701718260820FB6F89462
:100D80000F92809158078F5F809358078091B10729
:100D90009091B207892BD1F57092B2076092B1079A
:100DA00080915807813009F040C08DE897E00E949B
:100DB000E40086E997E00E94E4008FE997E00E9452
:100DC000E40088EA97E00E94E40084E897E00E944B
:100DD000E4008BE797E00E94E4008EE697E00E9433
:100DE000E40085E697E00E94E4008BE597E00E942E
:100DF000E40084E897E090937A07809379078BE783
:100E000097E090937807809377070FC080915407FD
:100E100081110BC0E091B107F091B20786890817E4
:100E200020F07092B2076092B107809150078F5FF7
:100E300080935007F301868990915507981710F415
:100E40008093550790E09C01220F331F220F331F20
:100E5000220F331F820F931FBE018357984F0E94AA
:100E6000F6000F900FBE80915407882359F0E0914F
:100E7000B107F091B2078689801730F40E941402FE
:100E800081E005C081E003C081E001C08FEFDF9108
:100E9000CF911F910F91FF90EF90DF90CF90BF9077
:100EA000AF909F908F907F906F905F904F9008953C
:100EB000AF92BF92CF92DF92EF92FF920F93A12C4D
:100EC000B12CC12CD12C0F2EF9E5EF2EF7E0FF2E1F
:100ED000F02D00E020E030E045E550E064E671E010
:100EE0008CEE98E00E944506813049F4F894809396
:100EF000540710925707109256070E94DA010F917B
:100F0000FF90EF90DF90CF90BF90AF9008958091C9
:100F10004F078F5F80934F070895CF92DF92EF9234
:100F2000FF920F931F93CF93DF9380914F0781110F
:100F30009BC0809156079091570701969093570751
:100F400080935607E0905607F0905707E114F1049C
:100F5000B9F48091790790917A07209177073091C1
:100F6000780730937A0720937907909378078093D6
:100F70007707809151078F5F809351070E94EF059B
:100F80008091020190910301E816F90610F4D12C2A
:100F900053C0D12CCC24C394E0917907F0917A0707
:100FA0008081811107C08FEF9FEF909303018093A1
:100FB000020142C0E0917907F0917A070580F6813D
:100FC000E02DC681D7818A819B81E816F90628F435
:100FD00090930301809302012FC08E010E5F1F4F7B
:100FE000C8010E9448018C899D89892B21F0CE017E
:100FF0000C960E9448018E8990915507981710F41D
:101000008093550790E09C01220F331F220F331F5E
:10101000220F331F820F931FB8018357984F0E94EE
:10102000F600E091B107F091B2079E898689981782
:1010300008F4B2CFDC2CB0CFE091B107F091B20749
:10104000868990E0FC01EE0FFF1FEE0FFF1FEE0FF1
:10105000FF1F8E0F9F1FFC01E357F84F80818230E6
:1010600048F0DD24D39406C0809153078F5F8093AE
:101070005307D12C80915207882311F0DD24D3949B
:101080008D2DDF91CF911F910F91FF90EF90DF9009
:10109000CF900895DF92EF92FF920F931F93CF931B
:1010A000DF930FB6F8940F9280914F078150809391
:1010B0004F0780914F07811162C0809158078111BD
:1010C00033C060C0D7011596ED91FC911697C6818B
:1010D000D781CE010C960E9448018E010E5F1F4FF2
:1010E000C8010E9448018E8990915507981710F405
:1010F0008093550790E09C01220F331F220F331F6E
:10110000220F331F820F931FB8018357984F0E94FD
:10111000F600E091B107F091B2079E898689981791
:1011200058F0D092520708C00F2EFEE6EF2EF7E0DF
:10113000FF2EF02DDD24D394F70180818111C2CFE1
:1011400080915307882399F080915307882379F081
:10115000C1E00E948D078111C0935207809153070F
:10116000815080935307809153078111F2CF809172
:101170005207813031F40E94140281E003C080E004
:1011800001C080E00F900FBEDF91CF911F910F91B2
:10119000FF90EF90DF900895CF93DF93EC01892BC0
:1011A000B1F00E9487078091560790915707C80FAA
:1011B000D91F8091B1079091B20702960E94480111
:1011C000CE010E940E060E944A08811102C00E94B0
:1011D0001402DF91CF91089505E617E00F2EFDE888
:1011E000EF2EF7E0FF2EF02D29C00E948707D801CF
:1011F000CC910E944A08CC2309F10FB6F8940F92C3
:10120000D8011596ED91FC911697C681D781CE0134
:1012100002960E9448018091580781508093580798
:10122000809164078150809364070F900FBE8F896F
:10123000988D0E946603CE010E9466038091640728
:101240008111D3CFF70180818230C0F30E94140254
:10125000F5CF80914F07882321F081E080935207DA
:101260000895109252078091550790E0FC01EE0F0F
:10127000FF1FEE0FFF1FEE0FFF1F8E0F9F1FFC01C2
:10128000E357F84F8081811117C080915507815035
:10129000809355078091550790E0FC01EE0FFF1FEA
:1012A000EE0FFF1FEE0FFF1F8E0F9F1FFC01E35776
:1012B000F84F8081882349F38091550790E09C0185
:1012C000220F331F220F331F220F331F280F391F06
:1012D000D901A357B84F1196ED91FC911297028056
:1012E000F381E02D1296FC93EE9311972057384F1F
:1012F000E217F30729F422813381FD013283218330
:10130000FC01EE0FFF1FEE0FFF1FEE0FFF1F8E0FF2
:101310009F1FFC01E357F84F0180F281E02D868189
:1013200097819093B2078093B1070895CF93DF938D
:10133000EB016091B1077091B207645F7F4F0E942B
:1013400017018091B1079091B20702960E9448015F
:10135000CF3F8FEFD80759F46091B1077091B20772
:101360006E5F7F4F8BE597E00E94F60008C080918A
:101370005607909157078C0F9D1F0E940E06DF9114
:10138000CF9108950F931F93CF93DF93DC011596B0
:10139000ED91FC911697C681D7818E01045F1F4F96
:1013A000C8010E94480180914F0781111CC00A505A
:1013B0001109C8010E9448018E899091550798171C
:1013C00010F48093550790E09C01220F331F220FE9
:1013D000331F220F331F820F931FB8018357984F7B
:1013E0000E94F60005C0B8018EE697E00E94F60064
:1013F000E091B107F091B2079E898689891720F4A0
:1014000081E08093520701C080E0DF91CF911F916E
:101410000F91089520915107FC01208320915607D8
:10142000309157073283218308950FB6F8940F92B5
:101430004091560750915707DB012D913C912F3F6A
:10144000BFEF3B0719F1E0915107DC01FC91FE175A
:1014500039F01196ED91FC9112974E175F07C0F489
:10146000DC011196ED91FC911297DA01AE1BBF0BD6
:10147000A217B30778F4DB01E41BF50B2E0F3F1F17
:101480002D933C930E940A0A80E005C080E003C0CF
:1014900081E001C081E00F900FBE089581E080934C
:1014A000520708950F931F93CF93DF93FC01892B6D
:1014B00009F455C02689A091B107B091B20756969C
:1014C0008C91281708F04BC084859585992364F08A
:1014D000A091B107B091B20756963C9184E090E09C
:1014E000831B91099587848730E0C901880F991F74
:1014F000880F991F880F991F280F391F2357384FBE
:10150000828593858217930719F58F01EF01229643
:10151000CE010E944801E091B107F091B20786899F
:10152000F801868B90915507981710F48093550712
:1015300090E09C01220F331F220F331F220F331F15
:10154000820F931FBE018357984F0E94F60007C079
:10155000A091B107B091B20756968C91868BDF911E
:10156000CF911F910F9108950F931F93CF93DF9306
:10157000FC01892B79F182A1815082A3268991A156
:10158000291751F181112AC0EF018F010E5F1F4F02
:10159000C8010E94480189A18E8B24E030E0281BFD
:1015A00031093D872C8790915507981710F4809347
:1015B000550790E09C01220F331F220F331F220F8B
:1015C000331F820F931FB8018357984F0E94F60074
:1015D00081E005C080E003C080E001C080E0DF91D1
:1015E000CF911F910F9108958091B1079091B2070B
:1015F000892B39F0E091B107F091B20782A18F5F9A
:1016000082A38091B1079091B20708951F920F9223
:101610000FB60F9211242F933F934F935F936F93C5
:101620007F938F939F93AF93BF93EF93FF9380919B
:10163000B3079091B407892B29F0E091B307F0919B
:10164000B4070995FF91EF91BF91AF919F918F9151
:101650007F916F915F914F913F912F910F900FBEAE
:101660000F901F9018951F920F920FB60F92112492
:101670002F933F934F935F936F937F938F939F939A
:10168000AF93BF93EF93FF938091B5079091B60707
:10169000892B29F0E091B507F091B6070995FF91E4
:1016A000EF91BF91AF919F918F917F916F915F91DA
:1016B0004F913F912F910F900FBE0F901F90189553
:1016C0001092C50087E68093C4008CE18093C1002E
:1016D00086E08093C2000895E0ECF0E0908195FFF1
:1016E000FDCF8093C6000895CF93DF93EC018881EE
:1016F000882331F021960E946C0B89918111FBCFD8
:10170000DF91CF910895FB01DC0102C001900D92A1
:0C17100041505040D8F70895F894FFCFE6
:10171C00DB05FFFF5461736B4120736179732068A3
:10172C00656C6C6F31323333343536373839313090
:10173C003131313231333134313531363137313871
:10174C0031393230210D0A005461736B42207265BD
:10175C00706F7274696E67210D0A005461736B208F
:10176C0041005461736B20420074727565006661B0
:0A177C006C73650049444C45000001
:00000001FF
