:100000000C9434000C94E40B0C94110C0C945100DF
:100010000C9451000C9451000C9451000C9451001C
:100020000C9451000C9451000C9451000C94350325
:100030000C9451000C9451000C9451000C945100FC
:100040000C9451000C9451000C9451000C945100EC
:100050000C9451000C9451000C9451000C945100DC
:100060000C9451000C94510011241FBECFEFD8E026
:10007000DEBFCDBF11E0A0E0B1E0EAE7F0E202C0F0
:1000800005900D92AA35B107D9F727E0AAE5B1E0AE
:1000900001C01D92AF3AB207E1F70E94FB000C9439
:1000A0003B100C940000CF93DF93CDB7DEB7E497FD
:1000B0000FB6F894DEBF0FBECDBF0E9461080F2EB1
:1000C000F8E0EF2EF1E0FF2EF02D8E010D5F1F4FB7
:1000D00020E04AE050E060E070E08091A907909154
:1000E000AA070E9400068130F9F420E044EF51E0B5
:1000F000BE016F5F7F4F8091A7079091A8070E9474
:1001000000068A818F9389818F93FF92EF921F93CC
:100110000F930E94EE0CC8010E94520C0F900F909A
:100120000F900F900F900F9060E070E08091A90702
:100130009091AA070E94D50588EE93E00E94AA0933
:10014000C7CFCF93DF93CDB7DEB7E4970FB6F89460
:10015000DEBF0FBECDBF0E9461080F2EF4E6CF2E8A
:10016000D12CF02D0F2EFCE1EF2EF1E0FF2EF02D23
:100170008E010D5F1F4F20E04AE050E060E070E02C
:100180008091A9079091AA070E940006813031F55D
:100190000E94D50CB6010E94610C9A83898320E0ED
:1001A0004AE050E0BE016F5F7F4F8091A7079091BA
:1001B000A8070E9434058A818F9389818F93FF92CB
:1001C000EF921F930F930E94EE0CC8010E94520CF5
:1001D0000F900F900F900F900F900F9060E070E0D5
:1001E0008091A9079091AA070E94D50588EE93E017
:1001F0000E94AA09C0CFAF92BF92CF92DF92EF9236
:10020000FF920F930E943E0C40E062E08AE00E9461
:1002100008059093A8078093A70743E060E081E07A
:100220000E9408059093AA078093A907892B71F172
:100230008FEF87B9A12CB12CC12CD12C0F2EFDEA48
:10024000EF2EF7E0FF2EF02D01E020E030E040E05F
:1002500051E060E371E081EA90E00E9419070F2EFF
:10026000FBEAEF2EF7E0FF2EF02D03E020E030E078
:1002700040E051E069E371E083E590E00E941907F6
:1002800082E491E00E94520C0E942C0880E090E0F1
:100290000F91FF90EF90DF90CF90BF90AF900895B7
:1002A000FC010396928381832FEF3FEF34832383F6
:1002B000968385839087878310820895FC01118639
:1002C00010860895CF93DF939C01FB01DC0111960A
:1002D000CD91DC911297D383C2838C819D819583CC
:1002E00084838C819D81DC0113967C936E9312979D
:1002F0007D836C8331872087F90180818F5F8083C4
:10030000DF91CF910895CF93DF93EB01488159811D
:100310004F3F2FEF520721F4FC01A781B0850DC09C
:10032000DC01139601C0DF011296ED91FC91139749
:100330002081318142175307B0F71296ED91FC915D
:100340001397FB83EA83D583C483BD83AC83139661
:10035000DC93CE93129799878887FC0120812F5FC9
:100360002083DF91CF910895CF93DF93FC01A08587
:10037000B185C281D381848195819D838C83C48121
:10038000D581828193819B838A8311968D919C91E3
:100390001297E817F90731F48481958112969C939E
:1003A0008E931197118610868C9181508C93DF91DA
:1003B000CF91089531E1FC013083319722E220830F
:1003C0003197A3E3A083319760833197708331978E
:1003D0001082319760E8608331971082319762E034
:1003E0006083319763E06083319764E06083319785
:1003F00065E06083319766E06083319767E06083F2
:10040000319768E06083319769E06083319760E1FC
:10041000608331973083319732E13083319733E114
:100420003083319734E13083319735E13083319730
:1004300036E13083319737E13083319738E13083CB
:10044000319739E13083319730E23083319731E2AF
:10045000308331972083319723E220833197408383
:1004600031975083319726E22083319727E220830A
:10047000319728E22083319729E22083319720E3C6
:100480002083319721E32083869708951092890075
:100490008CE7809388008BE080938100EFE6F0E0AA
:1004A000808182608083A091A107B091A207CD9145
:1004B000CDBFDD91DEBFFF91EF91DF91CF91BF9175
:1004C000AF919F918F917F916F915F914F913F91EC
:1004D0002F911F910F91FF90EF90DF90CF90BF90E1
:1004E000AF909F908F907F906F905F904F903F90D4
:1004F0002F901F900F900FBE0F90089581E00895E8
:100500000F920FB6F8940F921F9211242F923F92E0
:100510004F925F926F927F928F929F92AF92BF9213
:10052000CF92DF92EF92FF920F931F932F933F93FF
:100530004F935F936F937F938F939F93AF93BF93EB
:10054000CF93DF93EF93FF93A091A107B091A20700
:100550000DB60D920EB60D920E94070AA091A1074A
:10056000B091A207CD91CDBFDD91DEBFFF91EF919C
:10057000DF91CF91BF91AF919F918F917F916F91BB
:100580005F914F913F912F911F910F91FF90EF90AD
:10059000DF90CF90BF90AF909F908F907F906F90A3
:1005A0005F904F903F902F901F900F900FBE0F9035
:1005B00008950F920FB6F8940F921F9211242F9264
:1005C0003F924F925F926F927F928F929F92AF92E3
:1005D000BF92CF92DF92EF92FF920F931F932F93D0
:1005E0003F934F935F936F937F938F939F93AF93BB
:1005F000BF93CF93DF93EF93FF93A091A107B091A7
:10060000A2070DB60D920EB60D920E946B088111D5
:100610000E94070AA091A107B091A207CD91CDBF7A
:10062000DD91DEBFFF91EF91DF91CF91BF91AF914F
:100630009F918F917F916F915F914F913F912F91FA
:100640001F910F91FF90EF90DF90CF90BF90AF90F0
:100650009F908F907F906F905F904F903F902F90E2
:100660001F900F900FBE0F9008950E94D902189509
:100670000F931F93CF93DF93EC010E945B0880914F
:100680005A0181111DC0EFE5F1E084E691E091830C
:10069000808313821282EBE5F1E08BED95E093838A
:1006A000828311821082A3E6B1E014969C938E930C
:1006B00013971296FC93EE93119781E080935A0161
:1006C000209709F45FC09E012C5F3F4F2396CA3DDF
:1006D000D54008F05AC0E0915F01F0916001AFE5AC
:1006E000B1E002C0DF01FC01828193818217930790
:1006F00020F4808191810097A9F7C1E0EB35FC07D8
:1007000009F446C0CD91DC9111978E010C5F1F4F0B
:10071000808191818D939C9382819381821B930B25
:100720008930910510F1BF01620F731FDB01139631
:100730009C938E9312973383228312964D915C91F2
:1007400013978FE591E001C0CD01EC01A881B9813B
:1007500012962D913C91139724173507A8F3EB01BE
:10076000B983A883DC016D937C93809104019091FF
:10077000050122813381821B930B909305018093A5
:10078000040108C000E010E005C000E010E002C075
:1007900000E010E00E942809C801DF91CF911F916D
:1007A0000F9108950F931F93CF93DF93009741F11B
:1007B000EC018C01045011090E945B08F801428190
:1007C0005381AFE5B1E001C0DF01ED91FC911197DC
:1007D0002281338124173507B8F32497F983E883FE
:1007E0000D931C9320910401309105018A819B8116
:1007F000820F931F90930501809304010E942809A2
:10080000DF91CF911F910F9108951F93CF93DF93A5
:10081000EC01142F4C8D41110CC088819981892BDA
:1008200009F045C08A819B810E94920B1B821A822B
:1008300045C0111117C050E08C819D810E94E50CCC
:100840002C8D8C819D81820F911D9D838C832A81AB
:100850003B818217930768F1888199819D838C83FE
:1008600080E02CC050E08E819F810E94E50C8C8D31
:1008700090E09195819591092E813F81280F391F34
:100880003F832E83488159812417350730F42A810C
:100890003B81820F931F9F838E83123061F48A8D78
:1008A000882359F08A8D81508A8F80E007C080E0CC
:1008B00005C080E003C080E001C080E09A8D9F5FAA
:1008C0009A8FDF91CF911F910895FC01448D4423AD
:1008D000A9F050E026813781240F351F3783268306
:1008E000828193812817390720F080819181978335
:1008F0008683CB01668177810E94E50C08950F9372
:100900001F93CF93DF93EC010FB6F8940F928E8D67
:100910001816BCF48989811105C013C08989811119
:1009200004C00FC08E010F5E1F4FC8010E94A00AB5
:1009300081110E942C0B8E8D81508E8F8E8D1816FA
:100940006CF38FEF8E8F0F900FBE0FB6F8940F924F
:100950008D8D1816BCF48885811105C013C088855B
:10096000811104C00FC08E01085F1F4FC8010E9493
:10097000A00A81110E942C0B8D8D81508D8F8D8D41
:1009800018166CF38FEF8D8F0F900FBEDF91CF9104
:100990001F910F910895CF93DF93EC010FB6F89458
:1009A0000F92488159812C8D30E07B8D729FC00160
:1009B000739F900D1124FA01E80FF91FFB83EA835E
:1009C0001A8E5D834C83821B930B840F951F9F832C
:1009D0008E838FEF8D8F8E8F61110CC08885882359
:1009E00089F0CE0108960E94A00A813059F40E9435
:1009F000800208C0CE0108960E945001CE014196A7
:100A00000E9450010F900FBE81E0DF91CF910895B9
:100A10000F931F93CF93DF93082F162F6623B9F000
:100A2000869FC001112480960E943803EC01009734
:100A300021F414C0D983C88303C04F969983888357
:100A40000B8F1C8F61E0CE010E94CB0407C08FE1A9
:100A500090E00E943803EC01892B61F7CE01DF9111
:100A6000CF911F910F9108959F92AF92BF92CF9215
:100A7000DF92EF92FF920F931F93CF93DF9300D0FB
:100A800000D01F92CDB7DEB78C016B015D834C8324
:100A9000A22EB12C992493947C0188E0E80EF11CDD
:100AA0000FB6F8940F92F801928D838D981718F075
:100AB000F2E0AF1219C04A2DB601C8010E94050428
:100AC000F8019189992349F0C80141960E94A00A32
:100AD000813031F40E94800203C081110E948002A3
:100AE0000F900FBE81E050C08C819D81892B21F435
:100AF0000F900FBE80E048C0B11005C0CE01019636
:100B00000E94E80AB92C0F900FBE0E945B080FB636
:100B1000F8940F92F801858D8F3F09F4158EF80136
:100B2000868D8F3F09F4168E0F900FBEBE016C5F4D
:100B30007F4FCE0101960E94F30A81111FC00FB6AC
:100B4000F8940F92F801928D0F900FBE838D981339
:100B50000FC06C817D81C7010E94740AC8010E9488
:100B60007F040E94280981119BCF0E94800298CFA8
:100B7000C8010E947F040E94280992CFC8010E94E8
:100B80007F040E94280980E00F900F900F900F9033
:100B90000F90DF91CF911F910F91FF90EF90DF9019
:100BA000CF90BF90AF909F900895CF93DF93FC01BB
:100BB000928D838D9817D0F4828D8F5F828F868D72
:100BC0008F3F79F48189882399F0EB01CF01419619
:100BD0000E94A00A882371F0209771F081E0888339
:100BE0000CC0868D8F5F868F81E007C080E005C0D6
:100BF00081E003C081E001C081E0DF91CF910895E1
:100C00009F92AF92BF92CF92DF92EF92FF920F939B
:100C10001F93CF93DF9300D000D01F92CDB7DEB7E4
:100C20008C016B015D834C83922EB12CAA24A3947A
:100C30007C0181E1E80EF11C0FB6F8940F92F801E7
:100C4000828D882399F1E680F780B601C8010E9461
:100C5000650491101AC0F801828D8150828F8081C5
:100C60009181892B29F40E94D20BF801938382830E
:100C7000F80180858823B1F0C80108960E94A00A77
:100C8000813081F40E9480020DC0F801F782E68273
:100C90008189882339F0C80141960E94A00A8111F8
:100CA0000E9480020F900FBE81E05CC08C819D810C
:100CB000892B21F40F900FBE80E054C0B11005C005
:100CC000CE0101960E94E80ABA2C0F900FBE0E9436
:100CD0005B080FB6F8940F92F801858D8F3F09F4E9
:100CE000158EF801868D8F3F09F4168E0F900FBE7A
:100CF000BE016C5F7F4FCE0101960E94F30A811105
:100D00002BC00FB6F8940F92F801828D0F900FBE92
:100D100081111CC080819181892B49F40FB6F89410
:100D20000F92828193810E94300B0F900FBE6C81D5
:100D30007D81C7010E94740AC8010E947F040E943D
:100D40002809811179CF0E94800276CFC8010E94C4
:100D50007F040E94280970CFC8010E947F040E946E
:100D6000280980E00F900F900F900F900F90DF9167
:100D7000CF911F910F91FF90EF90DF90CF90BF9098
:100D8000AF909F900895E0916907F0916A07808184
:100D9000811107C08FEF9FEF9093070180930601A9
:100DA0000895E0916907F0916A070580F681E02DCA
:100DB0000680F781E02D82819381909307018093D3
:100DC00006010895CF93DF93EC01E091A107F09124
:100DD000A207938382838091460790914707C817A3
:100DE000D90768F46091A1077091A2078091670705
:100DF000909168076E5F7F4F0E94830117C06091DA
:100E0000A1077091A2078091690790916A076E5FB0
:100E10007F4F0E9483018091060190910701C817BE
:100E2000D90720F4D0930701C0930601DF91CF9139
:100E300008954F925F926F927F928F929F92AF929E
:100E4000BF92CF92DF92EF92FF920F931F93CF93B7
:100E5000DF934C01EB015A012901C114D10439F48B
:100E6000CA010E9438036C01892B09F4E3C088E2AF
:100E700090E00E9438033C01009779F0FC01D08E8D
:100E8000C78AF1E0AF1AB108CA0CDB1C8881F301F4
:100E9000818F8881811105C014C0C6010E94D203D0
:100EA000C9C0D3015A96FE0131969E01285F3F4F7B
:100EB000EF0181918D938881882319F0E217F30760
:100EC000B9F7F30110A2102F043008F013E0F3017A
:100ED000168B11A312A2E3012296CE010E945E019D
:100EE000C3010C960E945E01F3017186608684E066
:100EF00090E0811B910995878487738A628A13A287
:100F000014A215A216A217A2A201B401C6010E9442
:100F1000DA01F30191838083E114F10419F0F70100
:100F2000718260820FB6F8940F92809148078F5FAC
:100F3000809348078091A1079091A207892BD1F552
:100F40007092A2076092A10780914807813009F052
:100F500040C08DE797E00E94500186E897E00E942C
:100F600050018FE897E00E94500188E997E00E94C5
:100F7000500184E797E00E9450018BE697E00E94C1
:100F800050018EE597E00E94500185E597E00E94B0
:100F900050018BE497E00E94500184E797E0909322
:100FA0006A07809369078BE697E0909368078093C0
:100FB00067070FC08091440781110BC0E091A10722
:100FC000F091A2078689081720F07092A20760921C
:100FD000A107809140078F5F80934007F3018689C6
:100FE00090914507981710F48093450790E09C0175
:100FF000220F331F220F331F220F331F820F931F25
:10100000BE018358984F0E9462010F900FBE8091DD
:101010004407882359F0E091A107F091A20786893F
:10102000801730F40E94800281E005C081E003C097
:1010300081E001C08FEFDF91CF911F910F91FF9061
:10104000EF90DF90CF90BF90AF909F908F907F9068
:101050006F905F904F900895AF92BF92CF92DF92C2
:10106000EF92FF920F93A12CB12CC12CD12C0F2EFB
:10107000F9E4EF2EF7E0FF2EF02D00E020E030E065
:1010800045E550E065E571E08AEC99E00E941907BA
:10109000813049F4F89480934407109247071092E6
:1010A00046070E9446020F91FF90EF90DF90CF908D
:1010B000BF90AF90089580913F078F5F80933F0767
:1010C00008950FB6F8940F928091460790914707C4
:1010D0000F900FBE0895CF92DF92EF92FF920F9381
:1010E0001F93CF93DF9380913F0781119BC0809125
:1010F00046079091470701969093470780934607CC
:10110000E0904607F0904707E114F104B9F48091AC
:10111000690790916A0720916707309168073093BB
:101120006A07209369079093680780936707809107
:1011300041078F5F809341070E94C306809106019B
:1011400090910701E816F90610F4D12C53C0D12C68
:10115000CC24C394E0916907F0916A0780818111E2
:1011600007C08FEF9FEF909307018093060142C065
:10117000E0916907F0916A070580F681E02DC6814C
:10118000D7818A819B81E816F90628F4909307019C
:10119000809306012FC08E010E5F1F4FC8010E9471
:1011A000B4018C899D89892B21F0CE010C960E9477
:1011B000B4018E8990914507981710F480934507E4
:1011C00090E09C01220F331F220F331F220F331F89
:1011D000820F931FB8018358984F0E946201E091DB
:1011E000A107F091A2079E898689981708F4B2CFCB
:1011F000DC2CB0CFE091A107F091A207868990E0A6
:10120000FC01EE0FFF1FEE0FFF1FEE0FFF1F8E0FF3
:101210009F1FFC01E358F84F8081823048F0DD24A5
:10122000D39406C0809143078F5F80934307D12CEE
:1012300080914207882311F0DD24D3948D2DDF9116
:10124000CF911F910F91FF90EF90DF90CF90089575
:10125000DF92EF92FF920F931F93CF93DF930FB61E
:10126000F8940F9280913F07815080933F078091BF
:101270003F07811162C080914807811133C060C06F
:10128000D7011596ED91FC911697C681D781CE01B5
:101290000C960E94B4018E010E5F1F4FC8010E9480
:1012A000B4018E8990914507981710F480934507F3
:1012B00090E09C01220F331F220F331F220F331F98
:1012C000820F931FB8018358984F0E946201E091EA
:1012D000A107F091A2079E898689981758F0D092AD
:1012E000420708C00F2EFEE5EF2EF7E0FF2EF02D8F
:1012F000DD24D394F70180818111C2CF809143070F
:10130000882399F080914307882379F0C1E00E94F7
:101310006B088111C09342078091430781508093ED
:101320004307809143078111F2CF809142078130BA
:1013300031F40E94800281E003C080E001C080E0BF
:101340000F900FBEDF91CF911F910F91FF90EF9003
:10135000DF900895CF93DF93EC01892BB1F00E94C9
:101360005B088091460790914707C80FD91F80916D
:10137000A1079091A20702960E94B401CE010E949B
:10138000E2060E942809811102C00E948002DF91BA
:10139000CF91089505E517E00F2EFDE7EF2EF7E05A
:1013A000FF2EF02D29C00E945B08D801CC910E942D
:1013B0002809CC2309F10FB6F8940F92D80115969D
:1013C000ED91FC911697C681D781CE0102960E94BD
:1013D000B401809148078150809348078091540759
:1013E0008150809354070F900FBE8F89988D0E9473
:1013F000D203CE010E94D203809154078111D3CF32
:10140000F70180818230C0F30E948002F5CF809185
:101410003F07882321F081E08093420708951092CE
:1014200042078091450790E0FC01EE0FFF1FEE0F91
:10143000FF1FEE0FFF1F8E0F9F1FFC01E358F84F99
:101440008081811117C080914507815080934507A5
:101450008091450790E0FC01EE0FFF1FEE0FFF1F8C
:10146000EE0FFF1F8E0F9F1FFC01E358F84F808186
:10147000882349F38091450790E09C01220F331F98
:10148000220F331F220F331F280F391FD901A358F2
:10149000B84F1196ED91FC9112970280F381E02DE7
:1014A0001296FC93EE9311972058384FE217F307EA
:1014B00029F422813381FD0132832183FC01EE0F67
:1014C000FF1FEE0FFF1FEE0FFF1F8E0F9F1FFC0170
:1014D000E358F84F0180F281E02D86819781909347
:1014E000A2078093A1070895CF93DF93EB0160914A
:1014F000A1077091A207645F7F4F0E9483018091D2
:10150000A1079091A20702960E94B401CF3F8FEFEE
:10151000D80759F46091A1077091A2076E5F7F4FC1
:101520008BE497E00E94620108C080914607909189
:1015300047078C0F9D1F0E94E206DF91CF9108950F
:101540000F931F93CF93DF93DC011596ED91FC91E0
:101550001697C681D7818E01045F1F4FC8010E9474
:10156000B40180913F0781111CC00A501109C801C4
:101570000E94B4018E8990914507981710F48093CA
:10158000450790E09C01220F331F220F331F220FCB
:10159000331F820F931FB8018358984F0E94620136
:1015A00005C0B8018EE597E00E946201E091A107B5
:1015B000F091A2079E898689891720F481E08093A3
:1015C000420701C080E0DF91CF911F910F910895F4
:1015D00020914107FC012083209146073091470765
:1015E0003283218308950FB6F8940F9240914607F5
:1015F00050914707DB012D913C912F3FBFEF3B07F7
:1016000019F1E0914107DC01FC91FE1739F01196C8
:10161000ED91FC9112974E175F07C0F4DC01119613
:10162000ED91FC911297DA01AE1BBF0BA217B30725
:1016300078F4DB01E41BF50B2E0F3F1F2D933C9339
:101640000E94E80A80E005C080E003C081E001C09C
:1016500081E00F900FBE089581E0809342070895C6
:101660000F931F93CF93DF93FC01892B09F455C08F
:101670002689A091A107B091A20756968C912817B0
:1016800008F04BC084859585992364F0A091A1074B
:10169000B091A20756963C9184E090E0831B91099B
:1016A0009587848730E0C901880F991F880F991F9B
:1016B000880F991F280F391F2358384F828593852B
:1016C0008217930719F58F01EF012296CE010E9430
:1016D000B401E091A107F091A2078689F801868BF9
:1016E00090914507981710F48093450790E09C016E
:1016F000220F331F220F331F220F331F820F931F1E
:10170000BE018358984F0E94620107C0A091A107B3
:10171000B091A20756968C91868BDF91CF911F9145
:101720000F9108950F931F93CF93DF93FC01892BA3
:1017300079F182A1815082A3268991A1291751F1C3
:1017400081112AC0EF018F010E5F1F4FC8010E9457
:10175000B40189A18E8B24E030E0281B31093D873C
:101760002C8790914507981710F48093450790E0D7
:101770009C01220F331F220F331F220F331F820FB2
:10178000931FB8018358984F0E94620181E005C001
:1017900080E003C080E001C080E0DF91CF911F9125
:1017A0000F9108958091A1079091A207892B39F09C
:1017B000E091A107F091A20782A18F5F82A380919F
:1017C000A1079091A20708951F920F920FB60F9252
:1017D00011242F933F934F935F936F937F938F9336
:1017E0009F93AF93BF93EF93FF938091A307909143
:1017F000A407892B29F0E091A307F091A40709958C
:10180000FF91EF91BF91AF919F918F917F916F91D8
:101810005F914F913F912F910F900FBE0F901F90AE
:1018200018951F920F920FB60F9211242F933F938A
:101830004F935F936F937F938F939F93AF93BF93D8
:10184000EF93FF938091A5079091A607892B29F02C
:10185000E091A507F091A6070995FF91EF91BF913F
:10186000AF919F918F917F916F915F914F913F9138
:101870002F910F900FBE0F901F9018951092C500DA
:1018800087E68093C4008CE18093C10086E080935A
:10189000C2000895E0ECF0E0908195FFFDCF8093C9
:1018A000C6000895CF93DF93EC018881882331F03F
:1018B00021960E944A0C89918111FBCFDF91CF9133
:1018C000089597FB072E16F4009407D077FD09D0F2
:1018D0000E94750C07FC05D03EF4909581959F4FB2
:1018E0000895709561957F4F0895AA1BBB1B51E128
:1018F00007C0AA1FBB1FA617B70710F0A61BB70B80
:10190000881F991F5A95A9F780959095BC01CD0124
:1019100008958F929F92AF92BF92CF92DF92EF92F3
:10192000FF92CF93DF93EC01688179818A819B815B
:10193000611571058105910521F464E279ED8BE56E
:1019400097E02DE133EF41E050E00E94A10F490103
:101950005A019B01AC01A7EAB1E40E94C00F6B01E0
:101960007C01ACEEB4EFA50194010E94CE0FDC0126
:10197000CB018C0D9D1DAE1DBF1DB7FF03C0019790
:10198000A109B04888839983AA83BB839F77DF919D
:10199000CF91FF90EF90DF90CF90BF90AF909F904E
:1019A0008F9008950E94890C089580E091E00E9434
:1019B000890C0895A0E0B0E08093000190930101AC
:1019C000A0930201B09303010895FB01DC0102C062
:1019D00001900D9241505040D8F70895AEE0B0E02C
:1019E000E4EFFCE00C94E10F0D891E8986E08C8306
:1019F0001A8309838FEF9FE79E838D83AE01475E35
:101A00005F4F6F89788DCE0101960E94100DEF8196
:101A1000F885E00FF11F10822E96E4E00C94FD0F84
:101A2000ABE0B0E0E6E1FDE00C94D30F6C017B018C
:101A30008A01FC0117821682838181FFCCC1CE010D
:101A400001963C01F6019381F70193FD859193FF87
:101A500081917F01882309F4BAC1853239F493FD5D
:101A6000859193FF81917F01853229F4B60190E041
:101A70000E94070FE7CF912C212C312CFFE1F315A9
:101A8000D8F08B3279F038F4803279F08332A1F4D7
:101A9000232D20611DC08D3261F0803369F4232D28
:101AA000216016C0832D8260382EE32DE4603E2E27
:101AB0002AC0F32DF8601DC037FC2DC020ED280F83
:101AC0002A3040F08E32B9F436FC81C1232D2064D7
:101AD000322E19C036FE06C08AE0989E200D1124D1
:101AE000922E11C0EAE02E9E200D1124222EF32DFD
:101AF000F0623F2E08C08C3621F4832D8068382E8A
:101B000002C0883641F4F70193FD859193FF8191DE
:101B10007F018111B3CF982F9F7D9554933028F486
:101B20000C5F1F4F9FE399830DC0833631F08337DD
:101B300071F0833509F059C021C0F8018081898393
:101B40000E5F1F4F88248394912C530113C02801EA
:101B5000F2E04F0E511CF801A080B18036FE03C0A8
:101B6000692D70E002C06FEF7FEFC5010E94FC0E8F
:101B70004C018201F32DFF773F2E16C0280122E091
:101B8000420E511CF801A080B18036FE03C0692DC1
:101B900070E002C06FEF7FEFC5010E94F10E4C01B3
:101BA000F32DF0683F2E820133FC1BC0822D90E0A4
:101BB00088169906B0F4B60180E290E00E94070F03
:101BC0002A94F4CFF50137FC859137FE81915F01AE
:101BD000B60190E00E94070F21102A9421E0821A9A
:101BE00091088114910471F7E8C0843611F08936A8
:101BF00041F5F80137FE07C06081718182819381D0
:101C00000C5F1F4F08C060817181072E000C880B8C
:101C1000990B0E5F1F4FF32DFF763F2E97FF09C0E4
:101C200090958095709561957F4F8F4F9F4FF0688D
:101C30003F2E2AE030E0A3010E94430F882E861831
:101C400045C0853731F4232D2F7EB22E2AE030E0B7
:101C500025C0932D997FB92E8F36C1F018F48835A1
:101C600079F0B5C0803719F0883721F0B0C0E92F7E
:101C7000E061BE2EB4FE0DC0FB2DF460BF2E09C086
:101C800034FE0AC0292F2660B22E06C028E030E0BC
:101C900005C020E130E002C020E132E0F801B7FEEB
:101CA00007C060817181828193810C5F1F4F06C0E4
:101CB0006081718180E090E00E5F1F4FA3010E9460
:101CC000430F882E8618FB2DFF773F2E36FE0DC062
:101CD000232D2E7FA22E891458F434FE0BC032FC23
:101CE00009C0832D8E7EA82E05C0B82CA32C03C05E
:101CF000B82C01C0B92CA4FE0FC0FE01E80DF11DE7
:101D00008081803321F49A2D997EA92E09C0A2FEEC
:101D100006C0B394B39404C08A2D867809F0B394B6
:101D2000A3FC11C0A0FE06C0B21488F4280C922CAB
:101D30009B180EC0B21460F4B60180E290E00E94DD
:101D4000070FB394F7CFB21418F42B1802C0982CD5
:101D5000212CA4FE10C0B60180E390E00E94070F82
:101D6000A2FE17C0A1FC03C088E790E002C088E58E
:101D700090E0B6010CC08A2D867859F0A1FE02C011
:101D80008BE201C080E2A7FC8DE2B60190E00E94E8
:101D9000070F891438F4B60180E390E00E94070F22
:101DA0009A94F7CF8A94F301E80DF11D8081B60172
:101DB00090E00E94070F8110F5CF222009F442CE57
:101DC000B60180E290E00E94070F2A94F6CFF60158
:101DD0008681978102C08FEF9FEF2B96E2E10C94F2
:101DE000EF0FFC010590615070400110D8F780950D
:101DF00090958E0F9F1F0895FC01615070400190D7
:101E00000110D8F7809590958E0F9F1F08950F931E
:101E10001F93CF93DF93FB01238121FD03C08FEF3D
:101E20009FEF2CC022FF16C0468157812481358147
:101E30004217530744F4A081B1819D012F5F3F4FAA
:101E4000318320838C93268137812F5F3F4F3783E7
:101E5000268314C08B01EC01FB010084F185E02D89
:101E60000995892BE1F6D80116968D919C911797CB
:101E7000019617969C938E931697CE01DF91CF9182
:101E80001F910F910895FA01AA27283051F12031AE
:101E900081F1E8946F936E7F6E5F7F4F8F4F9F4FFE
:101EA000AF4FB1E03ED0B4E03CD0670F781F891F40
:101EB0009A1FA11D680F791F8A1F911DA11D6A0F0E
:101EC000711D811D911DA11D20D009F468943F91C1
:101ED0002AE0269F11243019305D3193DEF6CF01C0
:101EE0000895462F4770405D4193B3E00FD0C9F786
:101EF000F6CF462F4F70405D4A3318F0495D31FDF3
:101F00004052419302D0A9F7EACFB4E0A695979545
:101F1000879577956795BA95C9F70097610571051B
:101F200008959B01AC010A2E069457954795379565
:101F30002795BA95C9F7620F731F841F951FA01DBF
:101F40000895052E97FB1EF400940E94B80F57FDCC
:101F500007D00E940A1007FC03D04EF40C94B80F6F
:101F600050954095309521953F4F4F4F5F4F0895C5
:101F700090958095709561957F4F8F4F9F4F0895F5
:101F80000E942C10A59F900DB49F900DA49F800DD2
:101F9000911D11240895B7FF0C94C00F0E94C00F2B
:101FA000821B930B08952F923F924F925F926F92F4
:101FB0007F928F929F92AF92BF92CF92DF92EF92D9
:101FC000FF920F931F93CF93DF93CDB7DEB7CA1B5A
:101FD000DB0B0FB6F894DEBF0FBECDBF09942A8885
:101FE000398848885F846E847D848C849B84AA842D
:101FF000B984C884DF80EE80FD800C811B81AA81BA
:10200000B981CE0FD11D0FB6F894DEBF0FBECDBF84
:10201000ED010895A1E21A2EAA1BBB1BFD010DC004
:10202000AA1FBB1FEE1FFF1FA217B307E407F50788
:1020300020F0A21BB30BE40BF50B661F771F881F64
:10204000991F1A9469F760957095809590959B01FA
:10205000AC01BD01CF010895A29FB001B39FC001A3
:10206000A39F700D811D1124911DB29F700D811DC4
:0A2070001124911D0895F894FFCF8C
:10207A0001000000DB05FFFF436F6E73756D656439
:10208A00206974656D3A2025640D0A0050726F64E8
:10209A0075636564206974656D3A2025640D0A00CC
:1020AA0050726F647563657200436F6E73756D6508
:1020BA00720054455354494E470074727565006660
:0A20CA00616C73650049444C450049
:00000001FF
