S021000041726475696E6F556E6F4672656572746F735F365F312832292E737265630D
S11300000C9434000C94260A0C94530A0C9451005A
S11300100C9451000C9451000C9451000C94510018
S11300200C9451000C9451000C9451000C94B602A1
S11300300C9451000C9451000C9451000C945100F8
S11300400C9451000C9451000C9451000C945100E8
S11300500C9451000C9451000C9451000C945100D8
S11300600C9451000C94510011241FBECFEFD8E022
S1130070DEBFCDBF11E0A0E0B1E0ECE5F5E102C0E8
S113008005900D92A837B107D9F727E0A8E7B1E0AA
S113009001C01D92AB3CB207E1F70E94A6000C948C
S11300A0AC0A0C940000CF93DF93CDB7DEB7E29790
S11300B00FB6F894DEBF0FBECDBF88EB9BE00E9465
S11300C02C0860E070E08091C5079091C6070E94FB
S11300D0610484E091E00E94940A81E291E00E942C
S11300E0940ACE0101960E94940A84E391E00E944E
S11300F0940AE3CFCF93DF93CDB7DEB7E2970FB681
S1130100F894DEBF0FBECDBF20E04FEF5FEF60E09D
S113011070E08091C5079091C6070E948C048823E3
S113012081F086E391E00E94940A81E291E00E94CA
S1130130940ACE0101960E94940A84E391E00E94FD
S1130140940A88EE93E00E942C08DECF0E94800A75
S113015065E085E00E9455049093C6078093C50727
S1130160892BF1F0A12CB12CC12CD12CE12CF12C38
S113017002E020E030E040E051E064E571E08AE72D
S113018090E00E94A50501E020E030E040E051E06D
S11301906EE571E083E590E00E94A5050E94B80633
S11301A0FFCFFC010396928381832FEF3FEF3483CB
S11301B02383968385839087878310820895FC0127
S11301C0118610860895CF93DF939C01FB01DC0117
S11301D01196CD91DC911297D383C2838C819D813A
S11301E0958384838C819D81DC0113967C936E932B
S11301F012977D836C8331872087F90180818F5F1B
S11302008083DF91CF910895CF93DF93EB014881F1
S113021059814F3F2FEF520721F4FC01A781B0858C
S11302200DC0DC01139601C0DF011296ED91FC9123
S113023013972081318142175307B0F71296ED913D
S1130240FC911397FB83EA83D583C483BD83AC837A
S11302501396DC93CE93129799878887FC012081AB
S11302602F5F2083DF91CF910895CF93DF93FC011B
S1130270A085B185C281D381848195819D838C833E
S1130280C481D581828193819B838A8311968D91C8
S11302909C911297E817F90731F48481958112969D
S11302A09C938E931197118610868C9181508C9318
S11302B0DF91CF91089531E1FC013083319722E23F
S11302C020833197A3E3A0833197608331977083B0
S11302D031971082319760E86083319710823197AB
S11302E062E06083319763E06083319764E0608308
S11302F0319765E06083319766E06083319767E00A
S11303006083319768E06083319769E06083319757
S113031060E1608331973083319732E130833197E4
S113032033E13083319734E13083319735E13083E1
S1130330319736E13083319737E13083319738E1B3
S11303403083319739E13083319730E2308331970C
S113035031E2308331972083319723E22083319730
S1130360408331975083319726E22083319727E2E7
S11303702083319728E22083319729E22083319723
S113038020E32083319721E32083869708951092F8
S113039089008CE7809388008BE080938100EFE6EE
S11303A0F0E0808182608083A091BF07B091C00794
S11303B0CD91CDBFDD91DEBFFF91EF91DF91CF9164
S11303C0BF91AF919F918F917F916F915F914F9169
S11303D03F912F911F910F91FF90EF90DF90CF905D
S11303E0BF90AF909F908F907F906F905F904F9051
S11303F03F902F901F900F900FBE0F90089581E0B3
S113040008950F920FB6F8940F921F9211242F9211
S11304103F924F925F926F927F928F929F92AF9290
S1130420BF92CF92DF92EF92FF920F931F932F937D
S11304303F934F935F936F937F938F939F93AF9368
S1130440BF93CF93DF93EF93FF93A091BF07B09136
S1130450C0070DB60D920EB60D920E948908A091A8
S1130460BF07B091C007CD91CDBFDD91DEBFFF9135
S1130470EF91DF91CF91BF91AF919F918F917F9138
S11304806F915F914F913F912F911F910F91FF9029
S1130490EF90DF90CF90BF90AF909F908F907F9020
S11304A06F905F904F903F902F901F900F900FBED2
S11304B00F9008950F920FB6F8940F921F92112483
S11304C02F923F924F925F926F927F928F929F9260
S11304D0AF92BF92CF92DF92EF92FF920F931F934E
S11304E02F933F934F935F936F937F938F939F9338
S11304F0AF93BF93CF93DF93EF93FF93A091BF0785
S1130500B091C0070DB60D920EB60D920E94ED0685
S113051081110E948908A091BF07B091C007CD91B5
S1130520CDBFDD91DEBFFF91EF91DF91CF91BF9100
S1130530AF919F918F917F916F915F914F913F9177
S11305402F911F910F91FF90EF90DF90CF90BF906C
S1130550AF909F908F907F906F905F904F903F905F
S11305602F901F900F900FBE0F9008950E945A0273
S113057018950F931F93CF93DF93EC010E94E70626
S11305808091780181111DC0EDE7F1E082E891E0EE
S11305909183808313821282E9E7F1E08BED95E089
S11305A09383828311821082A1E8B1E014969C9314
S11305B08E9313971296FC93EE93119781E0809398
S11305C07801209709F45FC09E012C5F3F4F23966A
S11305D0CA3DD54008F05AC0E0917D01F0917E01FA
S11305E0ADE7B1E002C0DF01FC0182819381821793
S11305F0930720F4808191810097A9F7C1E0E9373E
S1130600FC0709F446C0CD91DC9111978E010C5F73
S11306101F4F808191818D939C9382819381821B52
S1130620930B8930910510F1BF01620F731FDB0139
S113063013969C938E9312973383228312964D9133
S11306405C9113978DE791E001C0CD01EC01A88185
S1130650B98112962D913C91139724173507A8F36D
S1130660EB01B983A883DC016D937C938091000135
S11306709091010122813381821B930B909301019C
S11306808093000108C000E010E005C000E010E025
S113069002C000E010E00E94AA07C801DF91CF91D8
S11306A01F910F9108950F931F93CF93DF9300979A
S11306B041F1EC018C01045011090E94E706F80194
S11306C042815381ADE7B1E001C0DF01ED91FC91BE
S11306D011972281338124173507B8F32497F983BE
S11306E0E8830D931C9320910001309101018A81CC
S11306F09B81820F931F90930101809300010E94BC
S1130700AA07DF91CF911F910F910895FC01448DA9
S11307104423A9F050E026813781240F351F378305
S11307202683828193812817390720F08081918163
S113073097838683CB01668177810E94A30A0895FB
S11307400F931F93CF93DF93EC010FB6F8940F929E
S11307508E8D1816BCF48989811105C013C089894E
S1130760811104C00FC08E010F5E1F4FC8010E948B
S1130770220981110E94AE098E8D81508E8F8E8D3B
S113078018166CF38FEF8E8F0F900FBE0FB6F89480
S11307900F928D8D1816BCF48885811105C013C085
S11307A08885811104C00FC08E01085F1F4FC801E6
S11307B00E94220981110E94AE098D8D81508D8F76
S11307C08D8D18166CF38FEF8D8F0F900FBEDF9108
S11307D0CF911F910F910895CF93DF93EC010FB642
S11307E0F8940F92488159812C8D30E07B8D729F53
S11307F0C001739F900D1124FA01E80FF91FFB83C8
S1130800EA831A8E5D834C83821B930B840F951F9E
S11308109F838E838FEF8D8F8E8F61110CC088859F
S1130820882389F0CE0108960E942209813059F468
S11308300E94010208C0CE0108960E94D100CE0198
S113084041960E94D1000F900FBE81E0DF91CF91BD
S113085008950F931F93CF93DF93082F162F6623CA
S1130860B9F0869FC001112480960E94B902EC0160
S1130870009721F414C0D983C88303C04F96998389
S113088088830B8F1C8F61E0CE010E94EC0307C0AC
S11308908FE190E00E94B902EC01892B61F7CE014F
S11308A0DF91CF911F910F910895CF93C62F42E00E
S11308B060E00E942904009711F0FC01C28FCF91DF
S11308C00895CF93DF93FC01928D838D9817D0F414
S11308D0828D8F5F828F868D8F3F79F48189882303
S11308E099F0EB01CF0141960E942209882371F00F
S11308F0209771F081E088830CC0868D8F5F868F8E
S113090081E007C080E005C081E003C081E001C050
S113091081E0DF91CF9108959F92AF92BF92CF92E1
S1130920DF92EF92FF920F931F93CF93DF9300D048
S113093000D01F92CDB7DEB78C016B015D834C8371
S1130940922EB12CAA24A3947C0181E1E80EF11C1F
S11309500FB6F8940F92F801828D882399F1E680FE
S1130960F780B601C8010E94860391101AC0F801ED
S1130970828D8150828F80819181892B29F40E94FC
S1130980140AF80193838283F80180858823B1F0E7
S1130990C80108960E942209813081F40E94010254
S11309A00DC0F801F782E6828189882339F0C801F5
S11309B041960E94220981110E9401020F900FBEEC
S11309C081E05CC08C819D81892B21F40F900FBE46
S11309D080E054C0B11005C0CE0101960E946A099E
S11309E0BA2C0F900FBE0E94E7060FB6F8940F9230
S11309F0F801858D8F3F09F4158EF801868D8F3FA0
S1130A0009F4168E0F900FBEBE016C5F7F4FCE01AE
S1130A1001960E94750981112BC00FB6F8940F92AC
S1130A20F801828D0F900FBE81111CC080819181CD
S1130A30892B49F40FB6F8940F92828193810E9416
S1130A40B2090F900FBE6C817D81C7010E94F60828
S1130A50C8010E94A0030E94AA07811179CF0E94B5
S1130A60010276CFC8010E94A0030E94AA0770CF9A
S1130A70C8010E94A0030E94AA0780E00F900F9073
S1130A800F900F900F90DF91CF911F910F91FF90D6
S1130A90EF90DF90CF90BF90AF909F900895E0913A
S1130AA08707F09188078081811107C08FEF9FEF3E
S1130AB090930301809302010895E0918707F091D8
S1130AC088070580F681E02D0680F781E02D82817C
S1130AD0938190930301809302010895CF93DF9350
S1130AE0EC01E091BF07F091C0079383828380916A
S1130AF0640790916507C817D90768F46091BF0728
S1130B007091C00780918507909186076E5F7F4F33
S1130B100E94040117C06091BF077091C0078091C3
S1130B208707909188076E5F7F4F0E940401809130
S1130B30020190910301C817D90720F4D09303014F
S1130B40C0930201DF91CF9108954F925F926F920B
S1130B507F928F929F92AF92BF92CF92DF92EF9249
S1130B60FF920F931F93CF93DF934C01EB015A0134
S1130B702901C114D10439F4CA010E94B9026C01DB
S1130B80892B09F4E3C088E290E00E94B9023C0199
S1130B90009779F0FC01D08EC78AF1E0AF1AB10852
S1130BA0CA0CDB1C8881F301818F8881811105C007
S1130BB014C0C6010E945303C9C0D3015A96FE0152
S1130BC031969E01285F3F4FEF0181918D9388817B
S1130BD0882319F0E217F307B9F7F30110A2102FD5
S1130BE0043008F013E0F301168B11A312A2E30101
S1130BF02296CE010E94DF00C3010C960E94DF0002
S1130C00F3017186608684E090E0811B91099587E9
S1130C108487738A628A13A214A215A216A217A249
S1130C20A201B401C6010E945B01F3019183808398
S1130C30E114F10419F0F701718260820FB6F8949F
S1130C400F92809166078F5F809366078091BF073C
S1130C509091C007892BD1F57092C0076092BF07AD
S1130C6080916607813009F040C08BE997E00E94CB
S1130C70D10084EA97E00E94D1008DEA97E00E94B7
S1130C80D10086EB97E00E94D10082E997E00E94B0
S1130C90D10089E897E00E94D1008CE797E00E9498
S1130CA0D10083E797E00E94D10089E697E00E9493
S1130CB0D10082E997E0909388078093870789E8B9
S1130CC097E090938607809385070FC08091620711
S1130CD081110BC0E091BF07F091C0078689081706
S1130CE020F07092C0076092BF0780915E078F5F0B
S1130CF080935E07F301868990916307981710F437
S1130D008093630790E09C01220F331F220F331F4F
S1130D10220F331F820F931FBE018556984F0E94E6
S1130D20E3000F900FBE80916207882359F0E09191
S1130D30BF07F091C0078689801730F40E94010232
S1130D4081E005C081E003C081E001C08FEFDF9145
S1130D50CF911F910F91FF90EF90DF90CF90BF90B4
S1130D60AF909F908F907F906F905F904F90089579
S1130D70AF92BF92CF92DF92EF92FF920F93A12C8A
S1130D80B12CC12CD12C0F2EF7E6EF2EF7E0FF2E5D
S1130D90F02D00E020E030E045E550E062E771E04E
S1130DA08CE498E00E94A505813049F4F89480937E
S1130DB0620710926507109264070E94C7010F91A1
S1130DC0FF90EF90DF90CF90BF90AF900895809107
S1130DD05D078F5F80935D070895CF92DF92EF9256
S1130DE0FF920F931F93CF93DF9380915D0781113F
S1130DF09BC0809164079091650701969093650765
S1130E0080936407E0906407F0906507E114F104AF
S1130E10B9F48091870790918807209185073091D4
S1130E2086073093880720938707909386078093DB
S1130E30850780915F078F5F80935F070E944F054E
S1130E408091020190910301E816F90610F4D12C67
S1130E5053C0D12CCC24C394E0918707F091880728
S1130E608081811107C08FEF9FEF909303018093DE
S1130E70020142C0E0918707F09188070580F6815E
S1130E80E02DC681D7818A819B81E816F90628F472
S1130E9090930301809302012FC08E010E5F1F4FB8
S1130EA0C8010E9435018C899D89892B21F0CE01CE
S1130EB00C960E9435018E8990916307981710F45F
S1130EC08093630790E09C01220F331F220F331F8E
S1130ED0220F331F820F931FB8018556984F0E942B
S1130EE0E300E091BF07F091C0079E8986899817B7
S1130EF008F4B2CFDC2CB0CFE091BF07F091C0076B
S1130F00868990E0FC01EE0FFF1FEE0FFF1FEE0F2E
S1130F10FF1F8E0F9F1FFC01E556F84F8081823022
S1130F2048F0DD24D39406C0809161078F5F8093DD
S1130F306107D12C80916007882311F0DD24D394BC
S1130F408D2DDF91CF911F910F91FF90EF90DF9046
S1130F50CF900895DF92EF92FF920F931F93CF9358
S1130F60DF930FB6F8940F9280915D0781508093C0
S1130F705D0780915D07811162C0809166078111D0
S1130F8033C060C0D7011596ED91FC911697C681C8
S1130F90D781CE010C960E9435018E010E5F1F4F42
S1130FA0C8010E9435018E8990916307981710F447
S1130FB08093630790E09C01220F331F220F331F9D
S1130FC0220F331F820F931FB8018556984F0E943A
S1130FD0E300E091BF07F091C0079E8986899817C6
S1130FE058F0D092600708C00F2EFCE7EF2EF7E010
S1130FF0FF2EF02DDD24D394F70180818111C2CF1F
S113100080916107882399F080916107882379F0A2
S1131010C1E00E94ED068111C093600780916107D1
S1131020815080936107809161078111F2CF809193
S11310306007813031F40E94010281E003C080E046
S113104001C080E00F900FBEDF91CF911F910F91EF
S1131050FF90EF90DF900895CF93DF93EC01892BFD
S1131060B1F00E94E7068091640790916507C80F6C
S1131070D91F8091BF079091C00702960E94350145
S1131080CE010E946E050E94AA07811102C00E942F
S11310900102DF91CF91089503E717E00F2EFBE9DA
S11310A0EF2EF7E0FF2EF02D29C00E94E706D801AD
S11310B0CC910E94AA07CC2309F10FB6F8940F92A1
S11310C0D8011596ED91FC911697C681D781CE0172
S11310D002960E94350180916607815080936607CD
S11310E0809172078150809372070F900FBE8F8991
S11310F0988D0E945303CE010E945303809172077E
S11311008111D3CFF70180818230C0F30E940102A4
S1131110F5CF80915D07882321F081E080936007FB
S11311200895109260078091630790E0FC01EE0F30
S1131130FF1FEE0FFF1FEE0FFF1F8E0F9F1FFC01FF
S1131140E556F84F8081811117C080916307815063
S1131150809363078091630790E0FC01EE0FFF1F0B
S1131160EE0FFF1FEE0FFF1F8E0F9F1FFC01E556B2
S1131170F84F8081882349F38091630790E09C01B4
S1131180220F331F220F331F220F331F280F391F43
S1131190D901A556B84F1196ED91FC911297028092
S11311A0F381E02D1296FC93EE9311972256384F5B
S11311B0E217F30729F422813381FD01328321836D
S11311C0FC01EE0FFF1FEE0FFF1FEE0FFF1F8E0F30
S11311D09F1FFC01E556F84F0180F281E02D8681C6
S11311E097819093C0078093BF070895CF93DF93AF
S11311F0EB016091BF077091C007645F7F4F0E944D
S113120004018091BF079091C00702960E943501A6
S1131210CF3F8FEFD80759F46091BF077091C00793
S11312206E5F7F4F89E697E00E94E30008C08091DB
S11312306407909165078C0F9D1F0E946E05DF91D6
S1131240CF9108950F931F93CF93DF93DC011596ED
S1131250ED91FC911697C681D7818E01045F1F4FD3
S1131260C8010E94350180915D0781111CC00A509C
S11312701109C8010E9435018E899091630798175E
S113128010F48093630790E09C01220F331F220F18
S1131290331F220F331F820F931FB8018556984FB7
S11312A00E94E30005C0B8018CE797E00E94E300C8
S11312B0E091BF07F091C0079E898689891720F4C1
S11312C081E08093600701C080E0DF91CF911F919E
S11312D00F91089520915F07FC01208320916407FA
S11312E0309165073283218308950FB6F8940F92E5
S11312F04091640750916507DB012D913C912F3F8C
S1131300BFEF3B0719F1E0915F07DC01FC91FE1789
S113131039F01196ED91FC9112974E175F07C0F4C6
S1131320DC011196ED91FC911297DA01AE1BBF0B13
S1131330A217B30778F4DB01E41BF50B2E0F3F1F54
S11313402D933C930E946A0980E005C080E003C0AD
S113135081E001C081E00F900FBE089581E0809389
S1131360600708950F931F93CF93DF93FC01892B9C
S113137009F455C02689A091BF07B091C0075696BD
S11313808C91281708F04BC084859585992364F0C7
S1131390A091BF07B091C00756963C9184E090E0BD
S11313A0831B91099587848730E0C901880F991FB1
S11313B0880F991F880F991F280F391F2556384FFA
S11313C0828593858217930719F58F01EF01229681
S11313D0CE010E943501E091BF07F091C0078689D4
S11313E0F801868B90916307981710F48093630734
S11313F090E09C01220F331F220F331F220F331F53
S1131400820F931FBE018556984F0E94E30007C0C8
S1131410A091BF07B091C00756968C91868BDF913F
S1131420CF911F910F9108958091BF079091C007AC
S1131430892B39F0E091BF07F091C00782A18F5F3B
S113144082A38091BF079091C00708951F920F92C5
S11314500FB60F9211242F933F934F935F936F9383
S11314607F938F939F93AF93BF93EF93FF93809159
S1131470C1079091C207892B29F0E091C107F0912F
S1131480C2070995FF91EF91BF91AF919F918F9101
S11314907F916F915F914F913F912F910F900FBE6C
S11314A00F901F9018951F920F920FB60F92112450
S11314B02F933F934F935F936F937F938F939F9358
S11314C0AF93BF93EF93FF938091C3079091C407A9
S11314D0892B29F0E091C307F091C4070995FF9186
S11314E0EF91BF91AF919F918F917F916F915F9198
S11314F04F913F912F910F900FBE0F901F90189511
S11315001092C50087E68093C4008CE18093C100EB
S113151086E08093C2000895E0ECF0E0908195FFAE
S1131520FDCF8093C6000895CF93DF93EC018881AB
S1131530882331F021960E948C0A89918111FBCF76
S1131540DF91CF910895FB01DC0102C001900D925F
S10F155041505040D8F70895F894FFCFA4
S113155CDB05FFFF3F3F204361722045584954454A
S113156C4420746865207061726B696E672E0D0A75
S113157C00417661696C61626C652073706F747381
S113158C3A200D0A0A003F3F2043617220454E5415
S113159C4552454420746865207061726B696E67AE
S11315AC2E0D0A0043617220656E746572004361EE
S11315BC72204578697400747275650066616C7389
S10B15CC650049444C45000090
S9030000FC
